:100000000C942A000C9457020C9480020C94A902C0
:100010000C9447000C9447000C9447000C94470044
:100020000C9447000C9447000C9447000C94470034
:100030000C9419030C947D040C9447000C94470015
:100040000C9447000C9447000C9447000C94D20287
:100050000C94470011241FBECFE5D8E0DEBFCDBF12
:1000600010E0A0E6B0E0E8E2FDE002C005900D92ED
:10007000A037B107D9F720E0A0E7B0E001C01D929A
:10008000A33BB207E1F70E94F3000C9492060C9494
:10009000000090917000E92FF0E0ED56FF4F808353
:1000A0009F5F90937000992319F081E08093710015
:1000B000089580E006C0E82FF0E0ED56FF4F108273
:1000C0008F5F8E31C0F30895EF92FF920F931F93CD
:1000D000CF937C018B010E9459001092700084E63E
:1000E00090E00E945103C0E008C0F701E80FF91F3B
:1000F000808190E00E947404CF5F8C2F90E0801785
:10010000910798F384EF91E00E9451038091710070
:10011000813009F04CC0809193008F3EE1F58091D1
:1001200094008130D1F5809199008730C1F580919C
:100130009C00811136C0E3E9F0E0878190E0982FC0
:1001400088272085822B9093B2008093B10020E015
:1001500006C0E22FF0E0E158FF4F10822F5F422FE0
:1001600050E048175907A8F340E00BC0242F30E0B7
:10017000F901E356FF4F5081F901E158FF4F5083D9
:100180004F5F242F30E0BC016250710926173707FA
:1001900068F380E007C081E005C081E003C081E032
:1001A00001C081E0109270001092710001C081E0E6
:1001B000CF911F910F91FF90EF9008950E944103FE
:1001C00089E490E00E94780460E071EE80E090E0C5
:1001D0000E94030460E170E080E690E00E94640009
:1001E0008130C1F3089541E067E082E40E941C0180
:1001F00041E066E081E40E941C0140E067E082E4A7
:100200000E94DD0140E066E081E40E94DD0105C05E
:1002100041E067E082E40E94DD010E94DE00892B5C
:10022000B9F740E067E082E40E94DD0141E066E06A
:1002300081E40E94DD01FFCF8234C1F118F48134E2
:1002400041F00895833409F45EC0843409F488C011
:10025000089541110CC02AB381E090E002C0880FDC
:10026000991F6A95E2F7809582238ABB08954130F1
:1002700059F42AB381E090E002C0880F991F6A9573
:10028000E2F7822B8ABB0895423081F42AB381E0E1
:1002900090E002C0880F991F6A95E2F7982F909519
:1002A00092239ABB9BB3892B8BBB089541110CC041
:1002B00027B381E090E002C0880F991F6A95E2F7AA
:1002C0008095822387BB0895413059F427B381E09C
:1002D00090E002C0880F991F6A95E2F7822B87BBD6
:1002E0000895423081F427B381E090E002C0880F86
:1002F000991F6A95E2F7982F9095922397BB98B330
:10030000892B88BB089541110CC024B381E090E093
:1003100002C0880F991F6A95E2F78095822384BBFB
:100320000895413059F424B381E090E002C0880F71
:10033000991F6A95E2F7822B84BB0895423081F4BD
:1003400024B381E090E002C0880F991F6A95E2F71C
:10035000982F9095922394BB95B3892B85BB0895D4
:1003600041110CC021B381E090E002C0880F991FB9
:100370006A95E2F78095822381BB0895413059F454
:1003800021B381E090E002C0880F991F6A95E2F7DF
:10039000822B81BB0895423079F421B381E090E053
:1003A00002C0880F991F6A95E2F7982F90959223C3
:1003B00091BB92B3892B82BB0895823431F118F43A
:1003C000813439F008958334E1F1843409F454C060
:1003D000089541110CC02BB381E090E002C0880F5A
:1003E000991F6A95E2F7809582238BBB089541306F
:1003F00009F05CC02BB381E090E002C0880F991F28
:100400006A95E2F7822B8BBB089541110CC028B38B
:1004100081E090E002C0880F991F6A95E2F780950D
:10042000822388BB0895413009F040C028B381E0A1
:1004300090E002C0880F991F6A95E2F7822B88BB73
:10044000089541110CC025B381E090E002C0880FEF
:10045000991F6A95E2F78095822385BB0895413004
:1004600029F525B381E090E002C0880F991F6A95B5
:10047000E2F7822B85BB089541110CC022B381E0C5
:1004800090E002C0880F991F6A95E2F78095822359
:1004900082BB0895413051F422B381E090E002C064
:1004A000880F991F6A95E2F7822B82BB08951F92ED
:1004B0000F920FB60F9211242F933F934F935F9398
:1004C0006F937F938F939F93AF93BF93EF93FF931C
:1004D000E0917600F0917700309709F00995FF914F
:1004E000EF91BF91AF919F918F917F916F915F91AC
:1004F0004F913F912F910F900FBE0F901F90189525
:100500001F920F920FB60F9211242F933F934F9388
:100510005F936F937F938F939F93AF93BF93EF936B
:10052000FF93E0917400F0917500309709F0099500
:10053000FF91EF91BF91AF919F918F917F916F91BB
:100540005F914F913F912F910F900FBE0F901F9091
:1005500018951F920F920FB60F9211242F933F936D
:100560004F935F936F937F938F939F93AF93BF93BB
:10057000EF93FF93E0917200F0917300309709F0D0
:100580000995FF91EF91BF91AF919F918F917F91CD
:100590006F915F914F913F912F910F900FBE0F90F0
:1005A0001F9018951F920F920FB60F9211242F9340
:1005B0003F934F935F936F937F938F939F93AF93EB
:1005C000BF93EF93FF9381B1887F803621F486B784
:1005D000806886BF1DC081B1887F803839F483B1BF
:1005E00080937A0086B7806886BF12C081B1887F09
:1005F000803A59F486B7806886BFE0917800F09120
:10060000790080917A00099503C086B7806886BF1B
:10061000FF91EF91BF91AF919F918F917F916F91DA
:100620005F914F913F912F910F900FBE0F901F90B0
:1006300018951F920F920FB60F9211242F933F938C
:100640004F935F936F937F938F939F93AF93BF93DA
:10065000EF93FF938FB1E0917B00F0917C000995BF
:10066000FF91EF91BF91AF919F918F917F916F918A
:100670005F914F913F912F910F900FBE0F901F9060
:10068000189583B7886083BF83B78F7B83BF83B799
:100690008F7E83BF83B78F7D83BF89B78D7F89BFEF
:1006A00008959C018AEF8CBF83B7887F836083BFE6
:1006B00008C008B601FEFDCF98B7926098BF2150E0
:1006C000310921153105A9F783B7887F83BF0895C4
:1006D0008F929F92AF92BF92CF92DF92EF92FF9252
:1006E0006B017C01DC01CB01880F991FAA1FBB1F86
:1006F000880F991FAA1FBB1FBC01CD01660F771F72
:10070000881F991F660F771F881F991F0E94B905C0
:100710009B01AC0160E074E284E79BE40E94180551
:1007200020E030E040E85FE30E94A6044B015C015A
:100730000E948A0580E090E00E94B9059B01AC010F
:10074000C501B4010E94A60420E030E040E05FE370
:100750000E946B06882354F020E030E040E85FE31D
:10076000C501B4010E94A7044B015C01C501B4019D
:100770000E948A056F5F7F4F62957295707F762722
:10078000607F76279B0140E050E060E074E284EFF8
:1007900090E00E947006CA01B9010E94B9054B01A0
:1007A0005C01C701B6010E94B9059B01AC01C501FE
:1007B000B4010E94180520E030E040E85FE30E94A9
:1007C000A6046B017C012AE037ED43E25CE30E9462
:1007D0001305181664F02AE037ED43E25CEBC7011D
:1007E000B6010E946B06882324F480E003C080E0F9
:1007F00001C081E0FF90EF90DF90CF90BF90AF906D
:100800009F908F900895CF92DF92EF92FF926B01AD
:100810007C010E946803882351F18BB18D7F8BB9D5
:10082000D701C601880F991FAA1FBB1F880F991FE8
:10083000AA1FBB1FBC01CD01660F771F881F991F20
:10084000660F771F881F991F0E94B9059B01AC0195
:1008500060E074E284E79BE40E94180520E030E049
:1008600040E85FE30E94A6040E948A0525C08BB180
:1008700082608BB9D701C601880F991FAA1FBB1FC1
:10088000880F991FAA1FBB1FBC01CD01660F771FE0
:10089000881F991F0E94B9059B01AC0160E074E2BA
:1008A00084E79BE40E94180520E030E040E85FE325
:1008B0000E94A6040E948A0570BD69B98FB780683E
:1008C0008FBF8AB180688AB98AB18B7F8AB98AB1B1
:1008D00088608AB98AB180618AB986E880BDFF9054
:1008E000EF90DF90CF9008955D9BFECF8CB9089577
:1008F00090937E0080937D0008951F920F920FB613
:100900000F9211242F933F934F935F936F937F9395
:100910008F939F93AF93BF93EF93FF938CB1E0912D
:100920007D00F0917E0090E00995FF91EF91BF91DD
:10093000AF919F918F917F916F915F914F913F9177
:100940002F910F900FBE0F901F9018955058BB27F6
:10095000AA270E94BE040C9431060E94230638F098
:100960000E942A0620F039F49F3F19F426F40C94D3
:1009700020060EF4E095E7FB0C941A06E92F0E947E
:10098000420658F3BA17620773078407950720F0E9
:1009900079F4A6F50C9464060EF4E0950B2EBA2FAC
:1009A000A02D0B01B90190010C01CA01A001112475
:1009B000FF27591B99F0593F50F4503E68F11A1621
:1009C000F040A22F232F342F4427585FF3CF4695B2
:1009D00037952795A795F0405395C9F77EF41F16D4
:1009E000BA0B620B730B840BBAF09150A1F0FF0F9E
:1009F000BB1F661F771F881FC2F70EC0BA0F621F8A
:100A0000731F841F48F4879577956795B795F79579
:100A10009E3F08F0B0CF9395880F08F09927EE0F0E
:100A20009795879508950E94F60508F481E008954A
:100A30000E942C050C9431060E942A0658F00E9450
:100A4000230640F029F45F3F29F00C941A06511157
:100A50000C9465060C9420060E94420668F39923C4
:100A6000B1F3552391F3951B550BBB27AA276217AA
:100A70007307840738F09F5F5F4F220F331F441FB7
:100A8000AA1FA9F335D00E2E3AF0E0E832D09150EB
:100A90005040E695001CCAF72BD0FE2F29D0660FD8
:100AA000771F881FBB1F261737074807AB07B0E81B
:100AB00009F0BB0B802DBF01FF2793585F4F3AF021
:100AC0009E3F510578F00C941A060C9465065F3F22
:100AD000E4F3983ED4F3869577956795B795F795A7
:100AE0009F5FC9F7880F911D9695879597F908958F
:100AF000E1E0660F771F881FBB1F6217730784072B
:100B0000BA0720F0621B730B840BBA0BEE1F88F739
:100B1000E09508950E944A0688F09F5798F0B92FF3
:100B20009927B751B0F0E1F0660F771F881F991F22
:100B30001AF0BA95C9F714C0B13091F00E9464065A
:100B4000B1E008950C946406672F782F8827B85F6A
:100B500039F0B93FCCF3869577956795B395D9F77A
:100B60003EF490958095709561957F4F8F4F9F4F84
:100B70000895E89409C097FB3EF490958095709590
:100B800061957F4F8F4F9F4F9923A9F0F92F96E9D9
:100B9000BB279395F695879577956795B795F1114E
:100BA000F8CFFAF4BB0F11F460FF1BC06F5F7F4FEB
:100BB0008F4F9F4F16C0882311F096E911C07723FD
:100BC00021F09EE8872F762F05C0662371F096E806
:100BD000862F70E060E02AF09A95660F771F881FD5
:100BE000DAF7880F9695879597F90895990F000879
:100BF000550FAA0BE0E8FEEF16161706E807F907EF
:100C0000C0F012161306E407F50798F0621B730B89
:100C1000840B950B39F40A2661F0232B242B252B0A
:100C200021F408950A2609F4A140A6958FEF811DAD
:100C3000811D089597F99F6780E870E060E008954E
:100C40009FEF80EC089500240A94161617061806E4
:100C50000906089500240A941216130614060506C0
:100C60000895092E0394000C11F4882352F0BB0F51
:100C700040F4BF2B11F460FF04C06F5F7F4F8F4FB4
:100C80009F4F089557FD9058440F551F59F05F3FEF
:100C900071F04795880F97FB991F61F09F3F79F09E
:100CA00087950895121613061406551FF2CF469520
:100CB000F1DF08C0161617061806991FF1CF8695A2
:100CC0007105610508940895E894BB276627772786
:100CD000CB0197F908950E94F60508F48FEF089567
:100CE000A1E21A2EAA1BBB1BFD010DC0AA1FBB1F30
:100CF000EE1FFF1FA217B307E407F50720F0A21BA2
:100D0000B30BE40BF50B661F771F881F991F1A940E
:100D100069F760957095809590959B01AC01BD0138
:080D2000CF010895F894FFCF04
:100D2800EF01FFFFFFFF0100071300000000001B99
:00000001FF
