:100000000C9432000C94C80F0C94F10F0C941A103D
:100010000C944F000C94D2100C944F000C944F0091
:100020000C944F000C944F000C944F000C944F0014
:100030000C944F000C94070F0C94AF0E0C94E30E2D
:100040000C9474120C944F000C944F000C944F00BD
:100050000C944F00F411F611FB11FD11051207125B
:100060000C120E1211241FBECFE5D8E0DEBFCDBFAB
:1000700014E0A0E6B0E0E2E9F3E302C005900D92DF
:10008000A234B107D9F728E0A2E4B4E001C01D9280
:10009000A037B207E1F70E9465140C94C7190C94BD
:1000A0000000CF93DF93CDB7DEB768970FB6F89413
:1000B000DEBF0FBECDBF8E010F5F1F4F8CE0F8017A
:1000C00011928A95E9F70E9400080E940E0B61E0E8
:1000D00082E00E94860A0E944310CE010D960E9483
:1000E00057108AE9E82E83E0F82E88EB9BE00E9407
:1000F0005F0BCE010D960E94D0100E943B088889AC
:100100008F938F858F938E858F938D858F93FF929D
:10011000EF921F930F930E94DD1687E893E00E94F1
:100120006108C8010E9461088C898F938B898F9325
:100130008A898F9389898F93FF92EF921F930F93F0
:100140000E94DD1684E893E00E946108C8010E94C5
:1001500061080E946D08888D8F938F898F938E8997
:100160008F938D898F93FF92EF921F930F930E942D
:10017000DD168DE893E00E946108C8010E946108C5
:100180000FB6F894DEBF0FBECDBFAFCF0E940E0BEF
:100190000E9400080E948B0B0E9434110E949F084D
:1001A0000E94AD120E94731341E067E081E00E945B
:1001B000CE0941E066E082E00C94CE090E946D1108
:1001C00090934304809342048E31910510F440E0F3
:1001D00004C04E970A9738F441E067E081E00E943E
:1001E000120A40E006C040E067E081E00E94120A87
:1001F00041E066E082E00C94120ACF93DF930E9404
:10020000CF08EC0188EC90E00E945F0B0E94CF08C1
:100210008C179D0728F0C817D90720F082E003C08B
:1002200080E001C081E0DF91CF9108950E94FD0040
:1002300090914404811102C09F5F03C0813019F482
:1002400091509093440480914404833038F441E009
:1002500066E080E00E94120A40E009C0835040E05E
:1002600066E0873050F480E00E94120A41E065E0C9
:1002700080E00E94120A40E009C080E00E94120A59
:1002800040E065E080E00E94120A41E064E080E026
:100290000C94120ACF93DF93CDB7DEB7A0970FB6B9
:1002A000F894DEBF0FBECDBF0E94C60080E1B82E1D
:1002B0008E010F5E1F4F94E9892E93E0992ECE0197
:1002C00001967C012AE9C22E23E0D22E0E94DE0094
:1002D000F8018B2D11928A95E9F7809143048F9351
:1002E000809142048F939F928F921F930F930E944D
:1002F000DD1640E050E060E070E0C8010E941A1393
:100300000E941601F7018B2D11928A95E9F78091D1
:1003100044041F928F93DF92CF92FF92EF920E943C
:10032000DD16C7010E94610884EF91E00E945F0B17
:100330000E943B080FB6F894DEBF0FBECDBFC6CFFC
:10034000EF92FF920F931F93E0906000F090610096
:10035000009162001091630020916400309165006B
:10036000409166005091670060916800709169004B
:1003700080916A0090916B000E94FA0D88EC90E0E9
:100380001F910F91FF90EF900C945F0BCF92DF9233
:10039000EF92FF920F931F93CF93DF93CDB7DEB70A
:1003A0008C8590E00E94610E8B8590E00E94610E2A
:1003B0008E010F5E1F4F7E018DE0E80EF11CF801EB
:1003C00082918F0190E00E94610E0E151F05B9F712
:1003D000898990E00E94610EEB88F12CC7010E9490
:1003E000610E8A89082F10E0C8010E94610EFE2C60
:1003F000EE240E291F2902501109CE010B966C0123
:100400007C01C7018C199D098017910748F4F701F9
:10041000818590E00E94610EFFEFEF1AFF0AF1CF95
:10042000CB5EDE4F8881C551D14090E00E94610EC5
:10043000CC5EDE4F8881C451D14090E00E94610EB5
:1004400081E0DF91CF911F910F91FF90EF90DF90AE
:10045000CF900895CF92DF92EF92FF920F931F9368
:10046000CF93DF93CDB7DEB78C8590E00E94920EDC
:100470008B8590E00E94920E8E010F5E1F4F7E01D1
:100480008DE0E80EF11CF80182918F0190E00E944E
:10049000920E0E151F05B9F7898990E00E94920E01
:1004A000EB88F12CC7010E94920E8A89082F10E078
:1004B000C8010E94920EFE2CEE240E291F29025024
:1004C0001109CE010B966C017C01C7018C199D09A5
:1004D0008017910748F4F701818590E00E94920E01
:1004E000FFEFEF1AFF0AF1CFCB5EDE4F8881C551D7
:1004F000D14090E00E94920ECC5EDE4F8881C451C4
:10050000D14090E00E94920E81E0DF91CF911F9147
:100510000F91FF90EF90DF90CF900895CF92DF92F0
:10052000EF92FF920F931F93CF93DF93EC010E9402
:100530006C0E89830E946C0E88838E010A5F1F4FA8
:100540007E0182E0E80EF11C0E946C0EF80182939D
:100550008F01EE16FF06C1F70E946C0E8E830E947B
:100560006C0E88870E946C0E8F839885082F10E090
:10057000192B025011096E01F9E0CF0ED11CE12CAC
:10058000F12CE016F10648F40E946C0EF6018193FE
:100590006F01FFEFEF1AFF0AF4CF0E946C0EFE010D
:1005A000E65FFE4F80830E946C0EC75FDE4F88833C
:1005B00081E0DF91CF911F910F91FF90EF90DF903D
:1005C000CF900895EF92FF920F931F93CF93DF93F5
:1005D000EC0101E010E00E94A20E8E3029F0FE0135
:1005E000E00FF11F808302C00F5F1F4F0150110900
:1005F00017FFF1CF03E010E00E94A20E8E3029F029
:10060000FE01E00FF11F828302C00F5F1F4F0150F8
:10061000110917FFF1CF0E94A20E8E30E1F38E83F5
:1006200001E010E00E94A20E8E3029F0FE01E00FE2
:10063000F11F878302C00F5F1F4F0150110917FF81
:10064000F1CFEF80F88482E0E81AF10800E010E0D2
:100650000E151F0570F40E94A20E8E3029F0FE01C7
:10066000E00FF11F818702C0015011090F5F1F4F7A
:10067000EFCF01E010E00E94A20E8E3039F0FE01B3
:10068000E00FF11FE75FFE4F808302C00F5F1F4F37
:100690000150110917FFEFCF81E0DF91CF911F913A
:1006A0000F91FF90EF900895CF93DF93CDB7DEB712
:1006B0004B852C853D858C8590E0840F911D4D8563
:1006C000840F911D22503109BE016B5F7F4FFB01EA
:1006D000AF01461B570B4217530728F44185840F7F
:1006E000911D3196F5CFDF91CF910895CF93DF9390
:1006F000EC0181E09FEE998388838FEF9FEFDC010F
:100700008A839B83AC83BD836E834F835887DE01CE
:100710001996F90142505109CF01821B930B84179E
:10072000950718F481918D93F7CF2DB73EB72B50D5
:1007300031400FB6F8943EBF0FBE2DBFADB7BEB768
:1007400011968BE091E0FE0101900D920197E1F787
:100750000E9454032DB73EB7255F3E4F0FB6F89465
:100760003EBF0FBE2DBFC75FDE4F99838883DF91E9
:10077000CF910895EF92FF920F931F93CF93DF9342
:10078000CDB7DEB7CB51D2400FB6F894DEBF0FBE67
:10079000CDBF8E01045F1E4F2BE031E0F801A901AF
:1007A000119241505040E1F7FE0131967F01A901BD
:1007B000119241505040E1F723E1C95EDD4F28839B
:1007C000C751D240C85EDD4F6883C851D240C75E72
:1007D000DD4F7883C951D240C65EDD4F8883CA5150
:1007E000D240C55EDD4F9883CB51D2409E01295E39
:1007F0003D4F47E050E061E0C8010E9476038DB7AD
:100800009EB78B5091400FB6F8949EBF0FBE8DBF20
:10081000ADB7BEB711968BE091E0F80101900D9253
:100820000197E1F70E942A020FB6F894DEBF0FBECF
:10083000CDBFC7010E94E2028A85C55EDD4F0FB6BB
:10084000F894DEBF0FBECDBFDF91CF911F910F9106
:10085000FF90EF900895EF92FF920F931F93CF9325
:10086000DF93CDB7DEB7C751D2400FB6F894DEBFE5
:100870000FBECDBF8E01045F1E4F8BE091E0F801EB
:100880009C01119221503040E1F7FE0131967F0129
:100890009C01119221503040E1F781E0C95EDD4FAB
:1008A0008883C751D2409E01295E3D4F43E050E00E
:1008B00061E0C8010E9476038DB79EB78B509140CE
:1008C0000FB6F8949EBF0FBE8DBFADB7BEB71196E1
:1008D0008BE091E0F80101900D920197E1F70E9401
:1008E0002A020FB6F894DEBF0FBECDBFC7010E942B
:1008F000E2028A85C95EDD4F0FB6F894DEBF0FBEF7
:10090000CDBFDF91CF911F910F91FF90EF90089590
:10091000EF92FF920F931F93CF93DF93CDB7DEB784
:10092000C751D2400FB6F894DEBF0FBECDBF8E01C7
:10093000045F1E4F8BE091E0F8019C011192215061
:100940003040E1F7FE0131967F019C011192215068
:100950003040E1F78AE0C95EDD4F8883C751D2405D
:100960009E01295E3D4F43E050E061E0C8010E94D6
:1009700076038DB79EB78B5091400FB6F8949EBF0B
:100980000FBE8DBFADB7BEB711968BE091E0F801F9
:1009900001900D920197E1F70E942A020FB6F89498
:1009A000DEBF0FBECDBFC7010E94E2028A85C95ECD
:1009B000DD4F0FB6F894DEBF0FBECDBFDF91CF91F4
:1009C0001F910F91FF90EF900895EF92FF920F9378
:1009D0001F93CF93DF93CDB7DEB7C851D2400FB688
:1009E000F894DEBF0FBECDBF8E01045F1E4F2BE01B
:1009F00031E0F801A901119241505040E1F7FE01A8
:100A000031967F01A901119241505040E1F792E0E7
:100A1000C95EDD4F9883C751D240C85EDD4F8883E1
:100A2000C851D2409E01295E3D4F44E050E061E054
:100A3000C8010E9476038DB79EB78B5091400FB6C8
:100A4000F8949EBF0FBE8DBFADB7BEB711968BE0B9
:100A500091E0F80101900D920197E1F70E942A02BE
:100A60000FB6F894DEBF0FBECDBFC7010E94E202F1
:100A70008A85C85EDD4F0FB6F894DEBF0FBECDBFCE
:100A8000DF91CF911F910F91FF90EF900895EF921A
:100A9000FF920F931F93CF93DF93CDB7DEB7C7516C
:100AA000D2400FB6F894DEBF0FBECDBF8E01045FFB
:100AB0001E4F8BE091E0F8019C01119221503040D3
:100AC000E1F7FE0131967F019C01119221503040E7
:100AD000E1F785E0C95EDD4F8883C751D2409E01B2
:100AE000295E3D4F43E050E061E0C8010E9476037B
:100AF0008DB79EB78B5091400FB6F8949EBF0FBE36
:100B00008DBFADB7BEB711968BE091E0F8010190B3
:100B10000D920197E1F70E942A020FB6F894DEBF0A
:100B20000FBECDBFC7010E94E2028A85C95EDD4FBC
:100B30000FB6F894DEBF0FBECDBFDF91CF911F91EE
:100B40000F91FF90EF900895EF92FF920F931F93F4
:100B5000CF93DF93CDB7DEB7CA51D2400FB6F8942A
:100B6000DEBF0FBECDBF8E01045F1E4F2BE031E014
:100B7000F801A901119241505040E1F7FE01319670
:100B80007F01A901119241505040E1F796E0C95E02
:100B9000DD4F9883C751D240C85EDD4F8883C8516E
:100BA000D240C75EDD4F7883C951D240C65EDD4F6B
:100BB0006883CA51D2409E01295E3D4F46E050E015
:100BC00061E0C8010E9476038DB79EB78B509140BB
:100BD0000FB6F8949EBF0FBE8DBFADB7BEB71196CE
:100BE0008BE091E0F80101900D920197E1F70E94EE
:100BF0002A020FB6F894DEBF0FBECDBFC7010E9418
:100C0000E2028A85C65EDD4F0FB6F894DEBF0FBEE6
:100C1000CDBFDF91CF911F910F91FF90EF9008957D
:100C2000EF92FF920F931F93CF93DF93CDB7DEB771
:100C3000CB51D2400FB6F894DEBF0FBECDBF8E01B0
:100C4000045F1E4F2BE031E0F801A90111924150E1
:100C50005040E1F7FE0131967F01A9011192415008
:100C60005040E1F79CE0C95EDD4F9883C751D24008
:100C7000C85EDD4F1882C851D240C75EDD4F888301
:100C8000C951D240C65EDD4F7883CA51D240C55E9D
:100C9000DD4F6883CB51D2409E01295E3D4F47E036
:100CA00050E061E0C8010E9476038DB79EB78B507B
:100CB00091400FB6F8949EBF0FBE8DBFADB7BEB7C3
:100CC00011968BE091E0F80101900D920197E1F708
:100CD0000E942A020FB6F894DEBF0FBECDBFC70137
:100CE0000E94E2028A85C55EDD4F0FB6F894DEBF32
:100CF0000FBECDBFDF91CF911F910F91FF90EF906D
:100D00000895AF92BF92CF92DF92EF92FF920F932E
:100D10001F93CF93DF93CDB7DEB7CC51D2400FB640
:100D2000F894DEBF0FBECDBF69017E0124EFE21A49
:100D30002EEFF20A0BE011E0F70198011192215019
:100D40003040E1F7FE0131965F0198011192215088
:100D50003040E1F794E0C95EDD4F9883C751D2403F
:100D6000C85EDD4F8883C851D240C75EDD4F7883AF
:100D7000C951D240C65EDD4F6883CA51D240C55EBC
:100D8000DD4F5883CB51D240C45EDD4F4883CC51F8
:100D9000D2409E01295E3D4F48E050E061E0C7012E
:100DA0000E9476038DB79EB78B5091400FB6F89492
:100DB0009EBF0FBE8DBFADB7BEB71196F7010190B4
:100DC0000D9201501040D9F70E942A020FB6F894F4
:100DD000DEBF0FBECDBFC5010E94E2028A85811130
:100DE00009C02B853C85322723273227F601318322
:100DF000208303C0F60111821082C45EDD4F0FB65E
:100E0000F894DEBF0FBECDBFDF91CF911F910F9140
:100E1000FF90EF90DF90CF90BF90AF900895CF9369
:100E2000DF9300D0CDB7DEB70E942B04882339F0C2
:100E30000E943B088DE993E00E946108F5CF81E0B4
:100E40000E94E504811133C00E943B088DEA93E0C3
:100E50000E9461080E942B04882329F00E943B080D
:100E60008CEB93E0F5CF82E00E94E50481111AC07B
:100E70000E943B088CEC93E00E9461080E944705A9
:100E800081110BC09E012F5F3F4F46E050E061E0B3
:100E900070E081E00E94810610C00E943B088BED4B
:100EA00093E009C00E943B0881EF93E004C00E94D8
:100EB0003B0885E094E00E94610889819A810F9047
:100EC0000F90DF91CF910895CF93C82F0E942B04EC
:100ED000882339F00E943B088DE993E00E94610865
:100EE000F5CF81E00E94E50481113BC00E943B08E0
:100EF0008DEA93E00E9461080E942B04882329F068
:100F00000E943B088CEB93E0F5CF82E00E94E50461
:100F1000811122C00E943B088CEC93E00E94610882
:100F20000E944705811113C06C2F70E081E00E9480
:100F3000A405811103C089E194E002C082E294E03B
:100F40000E94610880ED97E0CF910C945F0B0E94A6
:100F50003B0881E394E009C00E943B0881EF93E0E5
:100F600004C00E943B0885E094E0CF910C94610896
:100F700041E062E080E00E94120A81E090E00E947D
:100F8000760B40E062E080E00C94120ACF93C82F09
:100F9000482F417060E081E00E94120AC1FB4427A3
:100FA00040F961E081E00E94120AC2FB442740F947
:100FB00062E081E00E94120AC3FB442740F964E02A
:100FC00081E0CF910C94120ACF93C82F82958F7035
:100FD0000E94C60740E063E080E00E94120A0E947F
:100FE000B80784E690E00E94760B8C2F8F700E94E9
:100FF000C6070E94B80784E690E0CF910C94760B68
:101000000E940E0B41E060E081E00E94CE0941E0C9
:1010100061E081E00E94CE0941E062E081E00E944F
:10102000CE0941E064E081E00E94CE0941E063E046
:1010300080E00E94CE0941E062E080E00E94CE099B
:1010400040E062E080E00E94120A83E30E94E4072D
:1010500082E30E94E40788E20E94E4078EE00E9497
:10106000E40781E00E94E40780ED97E00E94760BA0
:1010700086E00C94E40781E00E94E40783E00E948C
:10108000E40780ED97E00C94760BCF93C82F829500
:101090008F700E94C60741E063E080E00E94120A60
:1010A0000E94B80784E690E00E94760B8C2F8F7028
:1010B0000E94C6070E94B80784E690E0CF910C9486
:1010C000760BCF93DF93EC018991882319F00E946E
:1010D0004508FACFDF91CF91089580EC0C94E40796
:1010E0008150860F0C94E407809151048823A1F06D
:1010F0001092510440917E0050917F0060918000D9
:101100007091810080918200909183000E94520F23
:1011100085E494E00C94C21081E0809351044091E6
:1011200078005091790060917A0070917B008091F5
:101130007C0090917D000E94520F0C9457100E94E9
:10114000431041E060E080E00E94CE0940E062E0B0
:1011500083E00E94CE0940917E0050917F00609113
:1011600080007091810080918200909183000E94A4
:10117000520F40E050E060E070E084E798E00C94AB
:10118000BB0F41E060E080E00E94120A8AE090E03C
:101190000E94760B40E060E080E00C94120ACF924F
:1011A000DF92EF92FF92CF93DF930E94C108C5E4D4
:1011B000D4E06C817D818E819F810E94E21520E0C8
:1011C00030E04AE754E40E9441156B017C016881DC
:1011D00079818A819B810E94E2159B01AC01C70144
:1011E000B6010E94D5146B017C01688579858A85DA
:1011F0009B850E94E21520E034E244E759E40E9416
:1012000041159B01AC01C701B6010E94D51420E035
:1012100030E84BEA53E40E94701620E030E040E0F2
:101220005FE30E94701620E030E048EC52E40E9438
:1012300070160E94B315CB01DF91CF91FF90EF9014
:10124000DF90CF900895FC01EC5FFD4F118210827A
:101250003497118210823296118210820895FC0117
:10126000208131812F5F3F4F211581E0380719F42C
:10127000118210820895318320830895FC0120811A
:10128000318121503109318320830895FC0180810F
:1012900091810895FC01EC5FFD4F20813181232B6A
:1012A00061F4DC01AE5FBD4F349781E04D915C91FC
:1012B000208131814217530709F080E008950F9390
:1012C0001F93CF93DF93EC010E944A09811116C04E
:1012D000CE019E5FDC01ED91FC91EE0FFF1FEC0F44
:1012E000FD1F008111810E942F09CC5FDD4F888195
:1012F0009981019799838883C80102C08EE090E0AC
:10130000DF91CF911F910F910895FC01EC5FFD4F8C
:10131000208131812115314061F4DC01AE5FBD4F88
:10132000349781E04D915C912081318142175307C0
:1013300009F080E008950F931F93CF93DF93EC01A2
:101340008B010E948509811117C0CE018E5F9D4FD0
:10135000DC01ED91FC91EE0FFF1FEC0FFD1F1183DF
:1013600000830E942F09CC5FDD4F8881998101960F
:101370009983888381E001C08FE0DF91CF911F9135
:101380000F910895F8940895789408958FB78F7702
:101390008FBF08958FB780688FBF08958130A9F0FF
:1013A00028F0823009F1833071F108952AB381E089
:1013B00090E001C0880F6A95EAF7411103C080955B
:1013C000822301C0822B8ABB089527B381E090E07D
:1013D00001C0880F6A95EAF7411103C08095822306
:1013E00001C0822B87BB089524B381E090E001C047
:1013F000880F6A95EAF7411103C08095822301C0E6
:10140000822B84BB089521B381E090E001C0880F56
:101410006A95EAF7411103C08095822301C0822BAF
:1014200081BB08958130A9F028F0823009F1833022
:1014300071F108952BB381E090E001C0880F6A95A7
:10144000EAF7411103C08095822301C0822B8BBB38
:10145000089528B381E090E001C0880F6A95EAF70B
:10146000411103C08095822301C0822B88BB08955F
:1014700025B381E090E001C0880F6A95EAF7411139
:1014800003C08095822301C0822B85BB089522B3BF
:1014900081E090E001C0880F6A95EAF7411103C02E
:1014A0008095822301C0822B82BB0895813081F018
:1014B00028F08230B9F08330F9F008952BB381E041
:1014C00090E001C0880F6A95EAF782278BBB0895E8
:1014D00028B381E090E001C0880F6A95EAF782277F
:1014E00088BB089525B381E090E001C0880F6A951C
:1014F000EAF7822785BB089522B381E090E001C01E
:10150000880F6A95EAF7822782BB0895813069F0D7
:1015100028F0823089F08330B1F00895611102C063
:101520001ABA08958FEF8ABB0895611102C017BAE5
:1015300008958FEF87BB0895611102C014BA089512
:101540008FEF84BB0895611102C011BA08958FEF27
:1015500081BB0895813041F028F0823039F083302A
:1015600039F008956BBB089568BB089565BB089575
:1015700062BB0895813049F030F0823041F0833011
:10158000C1F420B305C029B303C026B301C023B3FF
:1015900081E090E0062E02C0880F991F0A94E2F7BE
:1015A00030E08223932302C0959587956A95E2F7F0
:1015B000089580E00895813051F028F0823059F08C
:1015C000833069F008958BB380958BBB089588B301
:1015D000809588BB089585B3809585BB089582B3B7
:1015E000809582BB0895813049F030F0823041F01F
:1015F000833041F480B3089589B3089586B3089584
:1016000083B3089580E0089583B7816083BF83B773
:101610008D7F83BF83B78B7F83BF089583B78F7B15
:1016200083BF83B7886083BF08958830910509F12F
:1016300050F48230910591F18330910591F1019739
:10164000C9F50C94040B883F910569F020F48034AF
:10165000910591F00895811521E09207B1F081156F
:101660009440B1F0089583B78E7F83BF83B78D7F99
:1016700008C083B78E7F02C083B7816083BF83B702
:10168000826083BF83B78B7F14C083B78E7F02C015
:1016900083B7816083BF83B78D7F08C083B78E7F98
:1016A00002C083B7816083BF83B7826083BF83B783
:1016B000846083BF089588EF90E00C94150BCF935E
:1016C000DF93EC018AEF8CBF80E490E00E94150B61
:1016D000209741F008B601FEFDCF88B7826088BF31
:1016E0002197F6CFDF91CF910C945B0BCF93DF93D3
:1016F000EC0180E18CBF0E94040B209741F008B6FA
:1017000001FEFDCF88B7826088BF2197F6CFDF91B9
:10171000CF910C945B0B8FB58E7F8FBD8FB58260A0
:101720008FBD8EB588608EBD8EB580618EBD0895EB
:1017300080349105C1F030F48130910559F008975B
:1017400079F00895811521E09207B1F08115944058
:10175000B1F008958EB581608EBD8EB58D7F08C0C5
:101760008EB58E7F02C08EB581608EBD8EB58260D3
:101770008EBD8EB58B7F0BC08EB58E7F02C08EB5B1
:1017800081608EBD8EB58D7F8EBD8EB584608EBD21
:1017900008954F925F926F927F928F929F92AF9235
:1017A000BF92CF92DF92EF92FF921F93CF93DF937E
:1017B000182F6A017B018D9A8FB580648FBD8FB51C
:1017C00080688FBD9598812CA4E29A2EA4EFAA2E52
:1017D000B12CC501B401A70196010E947E14DA0163
:1017E000C9010197A109B1090097A140B10508F409
:1017F00042C0C501B401A7019601F3E0220F331FD7
:10180000441F551FFA95D1F70E947E14DA01C901D1
:101810000197A109B1090097A140B10578F1C5016F
:10182000B401A7019601E6E0220F331F441F551FA4
:10183000EA95D1F70E947E14DA01C9010197A10946
:10184000B1090097A140B105E0F044245C2C6D2C57
:101850007E2CC501B401A30192010E947E14DA011D
:10186000C9010197A109B1090097A140B10560F034
:10187000C0E0D4E00BC0C1E0D0E008C0C8E0D0E0D8
:1018800005C0C0E4D0E002C0C0E0D1E0DE01A701A5
:1018900096010E94A6149B01AC0160E074E284EF03
:1018A00090E00E947E1449015A01790181E0E81A12
:1018B000F1081F3F51F1612F70E080E090E00E943D
:1018C000E21520E030E04FE753E40E9441159B0110
:1018D000AC0160E070E080E89FE30E94D4142B012B
:1018E0003C01B40180E090E00E94E2159B01AC0154
:1018F000C301B2010E94701620E030E040E85FE3CF
:101900000E94D4140E94B31502C060E070E07BBD59
:101910006ABDF7BCE6BCCE01DF91CF911F91FF906D
:10192000EF90DF90CF90BF90AF909F908F907F907F
:101930006F905F904F900C94980B4F925F926F92C4
:101940007F928F929F92AF92BF92CF92DF92EF924F
:10195000FF921F93CF93DF93182F6A017B018C9A1C
:101960008FB580618FBD8FB580628FBD9498812CBB
:10197000A4E29A2EA4EFAA2EB12CC501B401A701AE
:1019800096010E947E14DA01C9010197A109B109EB
:101990000097A140B10508F442C0C501B401A701F8
:1019A0009601F3E0220F331F441F551FFA95D1F71C
:1019B0000E947E14DA01C9010197A109B1090097BB
:1019C000A140B10578F1C501B401A7019601E6E097
:1019D000220F331F441F551FEA95D1F70E947E1432
:1019E000DA01C9010197A109B1090097A140B10528
:1019F000E0F044245C2C6D2C7E2CC501B401A301C5
:101A000092010E947E14DA01C9010197A109B1096E
:101A10000097A140B10560F0C0E0D4E00BC0C1E088
:101A2000D0E008C0C8E0D0E005C0C0E4D0E002C00B
:101A3000C0E0D1E0DE01A70196010E94A6149B013F
:101A4000AC0160E074E284EF90E00E947E144901F2
:101A50005A01790181E0E81AF1081F3F51F1612F25
:101A600070E080E090E00E94E21520E030E04FE777
:101A700053E40E9441159B01AC0160E070E080E8F6
:101A80009FE30E94D4142B013C01B40180E090E05C
:101A90000E94E2159B01AC01C301B2010E947016C5
:101AA00020E030E040E85FE30E94D4140E94B315C8
:101AB00002C060E070E079BD68BDF7BCE6BCCE0155
:101AC000DF91CF911F91FF90EF90DF90CF90BF906B
:101AD000AF909F908F907F906F905F904F900C94FD
:101AE000980BCF93DF9300D0CDB7DEB7262F1A82A5
:101AF0001982BC0180E090E0213039F40E94E215A7
:101B000020E030E040E051E406C00E94E21520E011
:101B100030E040E851E40E9470169B01AC0160E0A7
:101B200074E284E79BE40E94411520E030E040E845
:101B30005FE30E94D4140E94B3157A83698380B551
:101B40008F7780BD89819A8190BD89819A8189B979
:101B500080B5806880BD0F900F90DF91CF91089580
:101B600090916F08813011F4977F01C09860909335
:101B70006F080895813041F018F0823051F00895D7
:101B800080916F088F7C08C080916F088F7E806283
:101B900003C080916F08806380936F080895873039
:101BA000A1F028F4853041F0863051F00895883056
:101BB00089F08930B1F0089590916F08997F0DC038
:101BC00090916F089B7F926008C090916F089D7FF5
:101BD000946003C090916F08966090936F0852983C
:101BE00006C090916F08966090936F08529A809308
:101BF0006E080895EF92FF920F931F93CF93DF9398
:101C0000CDB7DEB72C970FB6F894DEBF0FBECDBFB1
:101C1000E982FA820B831C832D833E834F8358878E
:101C200069877A878B879C87899A602F89819A81B7
:101C30000E94710D013009F4599A8C81813009F4A8
:101C4000589A8D81813021F4579A8FB780688FBF61
:101C50008E81813021F4569A8FB780688FBF8F8133
:101C6000813021F4559A8FB780688FBF8885813085
:101C700009F4549A8985813009F4539A8A850E941F
:101C8000CF0D8B850E94BA0D8C850E94B00D80917E
:101C90006F08806880936F0880BD88E596E00E9499
:101CA000230982E594E02C960FB6F894DEBF0FBEB0
:101CB000CDBFDF91CF911F910F91FF90EF900C94CA
:101CC00023095D9BFECF20916E08293019F45098AE
:101CD00090FD509A8CB908955F9BFECF20916E08BD
:101CE000293059F43BB12AB14CB13C7149F42695E5
:101CF0002170922F80E0842B08958CB190E008959C
:101D00008FEF9FEF0895CF93DF93EC0189918823A4
:101D100031F0082E000C990B0E94610EF7CFDF9175
:101D2000CF9108955D9B09C020916E08293019F468
:101D3000509890FD509A8CB90895BC0188E596E0C2
:101D40000C949B0982E594E00E944A09811104C029
:101D500082E594E00C945F098EE090E008951F9274
:101D60000F920FB60F9211242F933F934F935F93CF
:101D70006F937F938F939F93AF93BF93EF93FF9353
:101D800088E596E00E944A0981110CC088E596E03A
:101D90000E945F0920916E08293019F4509890FD37
:101DA000509A8CB9FF91EF91BF91AF919F918F9114
:101DB0007F916F915F914F913F912F910F900FBE47
:101DC0000F901F9018951F920F920FB60F9211242B
:101DD0002F933F934F935F936F937F938F939F9333
:101DE000AF93BF93EF93FF930E94AF0EFF91EF91DC
:101DF000BF91AF919F918F917F916F915F914F9123
:101E00003F912F910F900FBE0F901F9018951F922A
:101E10000F920FB60F9211242F933F934F935F931E
:101E20006F937F938F939F93AF93BF93CF93DF93E2
:101E3000EF93FF9382E594E00E948509811117C01A
:101E400080916E08893069F49BB18AB12CB19C7184
:101E500071F486958170D82F80E0C82FBE01622B67
:101E600002C06CB170E082E594E00E949B09FF9192
:101E7000EF91DF91CF91BF91AF919F918F917F9122
:101E80006F915F914F913F912F910F900FBE0F90E7
:101E90001F9018958FB78F778FBF08958FB7806881
:101EA0008FBF0895CF93DF9300D000D000D0CDB77F
:101EB000DEB749835A836B837C838D839E839FB770
:101EC00090689FBF99819630C9F49BB790649BBF7F
:101ED00095B7711102C09E7F03C0733031F49160D9
:101EE00095BF95B79D7F95BF0CC0713011F49E7F53
:101EF00001C0916095BF95B79260F5CF9BB79F7B6E
:101F00009BBF9A819730C9F49BB790689BBF95B7E8
:101F1000811102C09B7F03C0833031F4946095BF70
:101F200095B7977F95BF0CC0813011F49B7F01C09E
:101F3000946095BF95B79860F5CF9BB79F779BBF8F
:101F40009B81953061F49BB790629BBF823019F4FE
:101F500084B7806402C084B78F7B84BF03C08BB713
:101F60008F7D8BBF26960FB6F894DEBF0FBECDBF18
:101F7000DF91CF91089590936308809362087093E6
:101F800061086093600850935F0840935E0808956D
:101F90001F920F920FB60F9211242F933F934F93DE
:101FA0005F936F937F938F939F93AF93BF93EF93C1
:101FB000FF93E0916208F0916308309709F009956A
:101FC000FF91EF91BF91AF919F918F917F916F9111
:101FD0005F914F913F912F910F900FBE0F901F90E7
:101FE00018951F920F920FB60F9211242F933F93C3
:101FF0004F935F936F937F938F939F93AF93BF9311
:10200000EF93FF93E0916008F0916108309709F039
:102010000995FF91EF91BF91AF919F918F917F9122
:102020006F915F914F913F912F910F900FBE0F9045
:102030001F9018951F920F920FB60F9211242F9395
:102040003F934F935F936F937F938F939F93AF9340
:10205000BF93EF93FF93E0915E08F0915F08309794
:1020600009F00995FF91EF91BF91AF919F918F91E9
:102070007F916F915F914F913F912F910F900FBE84
:102080000F901F90189585B58F7785BD85B58F7B8F
:1020900085BD85B5877F85BD85B58F7E85BD85B5B9
:1020A0008F7D85BD89B7806489BF0C94CA0985B5C9
:1020B000816085BD0895CF92DF92EF92FF921F93CA
:1020C000CF93DF93EC0114B56091640870916508BB
:1020D00080916608909167080E94E2152DEB37E326
:1020E00046E857E30E9470166B017C01612F70E097
:1020F00080E090E00E94E4152DEB37E346E853E3DF
:102100000E9470169B01AC01C701B6010E94D51454
:102110006B017C010E94B315688379838A839B835A
:102120000E94E2159B01AC01C701B6010E94D414C4
:1021300020E030E04AE754E40E9470166B017C0115
:102140000E94B3156C837D838E839F830E94E2156A
:102150009B01AC01C701B6010E94D41420E030E01D
:102160004AE754E40E9470160E94B3156887798785
:102170008A879B87DF91CF911F91FF90EF90DF902F
:10218000CF90089525B52E7F25BD0E945B1010923B
:102190006408109265081092660810926708089506
:1021A0000C945B101F920F920FB60F9211248F9315
:1021B0009F93AF93BF938091640890916508A0911D
:1021C0006608B09167080196A11DB11D809364084F
:1021D00090936508A0936608B0936708BF91AF918C
:1021E0009F918F910F900FBE0F901F9018950C9498
:1021F0008B0B90E066E070E00E946A14862F42E349
:1022000050E060E070E08A5F0C94C90BEF92FF929F
:102210001F93CF93DF93182FC62F7A01D82FCD1796
:1022200040F08D2F0E94F910C7010E945F0BDF5F05
:10223000F6CFC11740F08C2F0E94F910C7010E9401
:102240005F0BC150F6CFDF91CF911F91FF90EF90C0
:10225000089560E070E080E090E00E944712909363
:102260006908809368080895CF93DF9300D000D069
:1022700000D0CDB7DEB786E0E6E8F0E0DE011196EB
:1022800001900D928A95E1F749815A816B817C8199
:102290008D819E810E94171289E291E126960FB6E8
:1022A000F894DEBF0FBECDBFDF91CF910C946D12BD
:1022B000CF93DF9300D0CDB7DEB7BE016F5F7F4F06
:1022C000CE0102960E945A1296958795969587950B
:1022D0000F900F90DF91CF9108950E945812809136
:1022E00068089091690896958795969587950895C1
:1022F000309A319A329A0895813031F018F0833053
:1023000031F008953E9801C03E9A3F9808953E9A54
:102310003F9A0895882319F0813039F008953D9A45
:1023200010926D0810926C0808953D9881E090E03D
:1023300090936D0880936C08089597B1982B97B986
:10234000982F9F7E31F028EF280F243010F088312D
:10235000D1F5D098282F277F213011F4D1980AC0C9
:102360008B30E1F38031D1F32FEE280F2730B0F31B
:102370008931A1F3923041F024EF280F243020F06E
:1023800028EE280F263010F5D298833011F4D39818
:1023900008C0282F2D7F2D30D1F3282F277F233100
:1023A000B1F3943011F08C3109F4D498953011F0D8
:1023B0008D3109F4D598963011F4D6980895973058
:1023C00041F4D7980895813079F6C8CF833029F742
:1023D000DECF089590E08830910540F5FC01E65D80
:1023E000FF4F80B70C94A0148F7D01C0806280BF26
:1023F00080B78F7B06C08F7D01C0806280BF80B7B1
:10240000806480BF80B78F7710C08F7D01C08062ED
:1024100080BF80B78F7B06C08F7D01C0806280BF88
:1024200080B7806480BF80B7806880BF0895CF93F5
:10243000DF9300D000D000D0CDB7DEB749835A83F8
:102440006B837C838D839E83379A0E947811898168
:102450000E947C118A810E948A118B810E949D11A9
:102460008D81813021F4359A8E810E94EA118C8110
:10247000813021F48FB780688FBF339A26960FB6CC
:10248000F894DEBF0FBECDBFDF91CF91089580914C
:102490006C0890916D08892B41F484B195B126E0C8
:1024A000969587952A95E1F7089584B195B1089599
:1024B000369A08950F931F93CF93DF93EC018B010E
:1024C0000E945812349BFECF349AB801CE01DF919E
:1024D000CF911F910F910C944712009721F0909388
:1024E0006B0880936A0808951F920F920FB60F929F
:1024F00011242F933F934F935F936F937F938F9309
:102500009F93AF93BF93EF93FF9360E070E080E001
:1025100090E00E9447129093690880936808D79AC8
:102520008BB380588BBB369AFF91EF91BF91AF91DF
:102530009F918F917F916F915F914F913F912F91DB
:102540000F900FBE0F901F901895682F80E80C9485
:102550003C14682F80E40C943C140E94D4138EEA3F
:102560000E94A51285ED0E94A51280E80E94A51286
:1025700088EA0E94A5128FE30E94A51283ED0E94B3
:10258000A51280E00E94A51280E40E94A5128DE8A9
:102590000E94A51284E10E94A51280E20E94A51269
:1025A00080E00E94A51281EA0E94A51288EC0E9498
:1025B000A5128AED0E94A51282E10E94A51281E86F
:1025C0000E94A5128FEC0E94A51289ED0E94A5120F
:1025D00081EF0E94A5128BED0E94A51280E40E945B
:1025E000A51284EA0E94A51286EA0E94A5128FEA2B
:1025F0000C94A5128FEA0C94A5128EEA0C94A512E5
:10260000CF93C62F80550E94A5128C2F880F880F5C
:10261000880F88700E94A51228E0C29FC001112473
:1026200024E0959587952A95E1F78F70805FCF918B
:102630000C94A512CF92DF92EF92FF920F931F930B
:10264000CF93DF931F92CDB7DEB78C01862F19820F
:10265000642F0E9400137801F70101917F0100238C
:10266000D9F010E00052110983E0000F111F8A9584
:10267000E1F7680188E0C80ED11CBE016F5F7F4F93
:10268000C8010E94C21389810E94A9120F5F1F4FC7
:102690000C151D0591F7E0CF0F90DF91CF911F91A1
:1026A0000F91FF90EF90DF90CF900895EF92FF92FF
:1026B0000F931F93CF93DF937C018B01842F622FA5
:1026C0000E940013E7010E0D1F1DC017D10721F056
:1026D00089910E94A912F9CFDF91CF911F910F919B
:1026E000FF90EF900895CF93DF93C0E060E08C2FD0
:1026F0000E940013D0E080E00E94A912DF5FD03872
:10270000D1F7CF5FC83091F7DF91CF9108950E9444
:10271000FD120E9473130C94FA12EF92FF921F9312
:10272000CF93DF93C0E0D0E07E0188E0E80EF11C9B
:10273000FE01E457FF4F1081812F0E944508612F51
:10274000CE010E94B1132196CE15DF0589F7C83F4F
:1027500082E0D80749F7DF91CF911F91FF90EF906A
:102760000895811524E0920750F4E199FECF9FBBB4
:102770008EBB6DBBE29AE19A81E090E0089580E023
:1027800090E00895811524E0920758F4E199FECF76
:102790009FBB8EBBE09A8DB3FB01808381E090E00C
:1027A000089580E090E008958091840090918500E4
:1027B0008430910571F020F4019781F481B10DC04E
:1027C0008031910541F08034910541F481B18360FD
:1027D00004C0089A03C0099A01C081B988E480B98D
:1027E000089584EE86BF06B607FEFDCF91B1987FAF
:1027F00021E030E0983011F420E030E0C901089584
:1028000083B984E886BF06B607FEFDCF81B1887F15
:10281000883219F480E090E0089585E090E0089512
:1028200083B984E886BF06B607FEFDCF80E090E05E
:1028300008950C94101484EE86BF06B607FEFDCFF3
:1028400081B1887F803119F480E090E0089582E0C2
:1028500090E0089584E886BF06B607FEFDCF83B1F9
:10286000089584EC86BF06B607FEFDCF83B190E0E5
:10287000089584ED86BF0895CF93DF93D82FC62F98
:102880000E94F11388E70E9410148D2F0E940014FB
:102890008C2F0E94101484ED86BFDF91CF91089594
:1028A000CF93C82F0E94F11388E70E9410148C2F39
:1028B0000E9400140E941B1489E70E9410140E94B9
:1028C0002A1494ED96BFCF9108950E944A0180E0AA
:1028D00090E0089597FB072E16F4009407D077FD3B
:1028E00009D00E94B11407FC05D03EF49095819563
:1028F0009F4F0895709561957F4F0895A1E21A2E1C
:10290000AA1BBB1BFD010DC0AA1FBB1FEE1FFF1F93
:10291000A217B307E407F50720F0A21BB30BE40BE3
:10292000F50B661F771F881F991F1A9469F760952A
:102930007095809590959B01AC01BD01CF010895E4
:10294000EE0FFF1F0590F491E02D09940E94C5142D
:10295000A59F900DB49F900DA49F800D911D1124F3
:102960000895AA1BBB1B51E107C0AA1FBB1FA617D6
:10297000B70710F0A61BB70B881F991F5A95A9F728
:1029800080959095BC01CD010895A29FB001B39FA1
:10299000C001A39F700D811D1124911DB29F700D68
:1029A000811D1124911D08955058BB27AA270E940C
:1029B000EC140C9436160E94281638F00E942F163C
:1029C00020F039F49F3F19F426F40C9425160EF4E8
:1029D000E095E7FB0C941F16E92F0E94471658F369
:1029E000BA17620773078407950720F079F4A6F5F4
:1029F0000C9469160EF4E0950B2EBA2FA02D0B0146
:102A0000B90190010C01CA01A0011124FF27591B33
:102A100099F0593F50F4503E68F11A16F040A22F39
:102A2000232F342F4427585FF3CF469537952795AA
:102A3000A795F0405395C9F77EF41F16BA0B620BA9
:102A4000730B840BBAF09150A1F0FF0FBB1F661FF0
:102A5000771F881FC2F70EC0BA0F621F731F841F33
:102A600048F4879577956795B795F7959E3F08F059
:102A7000B0CF9395880F08F09927EE0F979587951B
:102A800008950E9455150C9436160E942F1658F082
:102A90000E94281640F029F45F3F29F00C941F167D
:102AA00051110C946A160C9425160E94471668F36F
:102AB0009923B1F3552391F3951B550BBB27AA27F7
:102AC00062177307840738F09F5F5F4F220F331F31
:102AD000441FAA1FA9F335D00E2E3AF0E0E832D0F9
:102AE00091505040E695001CCAF72BD0FE2F29D0FC
:102AF000660F771F881FBB1F261737074807AB07CE
:102B0000B0E809F0BB0B802DBF01FF2793585F4F42
:102B10003AF09E3F510578F00C941F160C946A16FB
:102B20005F3FE4F3983ED4F3869577956795B79524
:102B3000F7959F5FC9F7880F911D9695879597F92F
:102B40000895E1E0660F771F881FBB1F62177307A8
:102B50008407BA0720F0621B730B840BBA0BEE1FBD
:102B600088F7E09508950E944F1688F09F5798F0D7
:102B7000B92F9927B751B0F0E1F0660F771F881F82
:102B8000991F1AF0BA95C9F714C0B13091F00E949C
:102B90006916B1E008950C946916672F782F88277D
:102BA000B85F39F0B93FCCF3869577956795B395C3
:102BB000D9F73EF490958095709561957F4F8F4F32
:102BC0009F4F0895E89409C097FB3EF49095809537
:102BD000709561957F4F8F4F9F4F9923A9F0F92FE3
:102BE00096E9BB279395F695879577956795B79561
:102BF000F111F8CFFAF4BB0F11F460FF1BC06F5F47
:102C00007F4F8F4F9F4F16C0882311F096E911C058
:102C1000772321F09EE8872F762F05C0662371F079
:102C200096E8862F70E060E02AF09A95660F771F8D
:102C3000881FDAF7880F9695879597F9089597F981
:102C40009F6780E870E060E008959FEF80EC089552
:102C500000240A941616170618060906089500247B
:102C60000A9412161306140605060895092E0394F5
:102C7000000C11F4882352F0BB0F40F4BF2B11F469
:102C800060FF04C06F5F7F4F8F4F9F4F089557FDC8
:102C90009058440F551F59F05F3F71F04795880FCA
:102CA00097FB991F61F09F3F79F087950895121661
:102CB00013061406551FF2CF4695F1DF08C016160D
:102CC00017061806991FF1CF8695710561050894BE
:102CD0000895E894BB2766277727CB0197F90895D5
:102CE0000E9483160C9436160E94281638F00E9413
:102CF0002F1620F0952311F00C941F160C94251616
:102D000011240C946A160E94471670F3959FC1F324
:102D1000950F50E0551F629FF001729FBB27F00D89
:102D2000B11D639FAA27F00DB11DAA1F649F6627DE
:102D3000B00DA11D661F829F2227B00DA11D621F2D
:102D4000739FB00DA11D621F839FA00D611D221FE7
:102D5000749F3327A00D611D231F849F600D211DCB
:102D6000822F762F6A2F11249F5750409AF0F1F04E
:102D700088234AF0EE0FFF1FBB1F661F771F881FB7
:102D800091505040A9F79E3F510580F00C941F16BA
:102D90000C946A165F3FE4F3983ED4F386957795DA
:102DA0006795B795F795E7959F5FC1F7FE2B880F5D
:102DB000911D9695879597F90895AEE0B0E0E3EE02
:102DC000F6E10C949E190D891E8986E08C831A8386
:102DD00009838FEF9FE79E838D83AE01475E5F4F30
:102DE0006F89788DCE0101960E94FF16EF81F885DC
:102DF000E00FF11F10822E96E4E00C94BA19ABE0BC
:102E0000B0E0E5E0F7E10C9490196C017B018A01D8
:102E1000FC0117821682838181FFCCC1CE0101960D
:102E20003C01F6019381F70193FD859193FF819118
:102E30007F01882309F4BAC1853239F493FD859165
:102E400093FF81917F01853229F4B60190E00E94C1
:102E5000F618E7CF912C212C312CFFE1F315D8F097
:102E60008B3279F038F4803279F08332A1F4232D5B
:102E700020611DC08D3261F0803369F4232D216003
:102E800016C0832D8260382EE32DE4603E2E2AC0CA
:102E9000F32DF8601DC037FC2DC020ED280F2A301F
:102EA00040F08E32B9F436FC81C1232D2064322EDD
:102EB00019C036FE06C08AE0989E200D1124922E7D
:102EC00011C0EAE02E9E200D1124222EF32DF06277
:102ED0003F2E08C08C3621F4832D8068382E02C026
:102EE000883641F4F70193FD859193FF81917F012D
:102EF0008111B3CF982F9F7D9554933028F40C5FA8
:102F00001F4F9FE399830DC0833631F0833771F0F3
:102F1000833509F059C021C0F801808189830E5F93
:102F20001F4F88248394912C530113C02801F2E091
:102F30004F0E511CF801A080B18036FE03C0692DF0
:102F400070E002C06FEF7FEFC5010E94EB184C01EB
:102F50008201F32DFF773F2E16C0280122E0420E9A
:102F6000511CF801A080B18036FE03C0692D70E0CD
:102F700002C06FEF7FEFC5010E94E0184C01F32DF6
:102F8000F0683F2E820133FC1BC0822D90E0881632
:102F90009906B0F4B60180E290E00E94F6182A94F7
:102FA000F4CFF50137FC859137FE81915F01B601C1
:102FB00090E00E94F61821102A9421E0821A9108CC
:102FC0008114910471F7E8C0843611F0893641F517
:102FD000F80137FE07C060817181828193810C5FA7
:102FE0001F4F08C060817181072E000C880B990B60
:102FF0000E5F1F4FF32DFF763F2E97FF09C0909570
:103000008095709561957F4F8F4F9F4FF0683F2E51
:103010002AE030E0A3010E943219882E861845C0AC
:10302000853731F4232D2F7EB22E2AE030E025C0E3
:10303000932D997FB92E8F36C1F018F4883579F029
:10304000B5C0803719F0883721F0B0C0E92FE061B2
:10305000BE2EB4FE0DC0FB2DF460BF2E09C034FEA1
:103060000AC0292F2660B22E06C028E030E005C035
:1030700020E130E002C020E132E0F801B7FE07C0F5
:1030800060817181828193810C5F1F4F06C06081D6
:10309000718180E090E00E5F1F4FA3010E94321902
:1030A000882E8618FB2DFF773F2E36FE0DC0232D70
:1030B0002E7FA22E891458F434FE0BC032FC09C0B6
:1030C000832D8E7EA82E05C0B82CA32C03C0B82C4F
:1030D00001C0B92CA4FE0FC0FE01E80DF11D8081D6
:1030E000803321F49A2D997EA92E09C0A2FE06C034
:1030F000B394B39404C08A2D867809F0B394A3FCEA
:1031000011C0A0FE06C0B21488F4280C922C9B18A3
:103110000EC0B21460F4B60180E290E00E94F6188E
:10312000B394F7CFB21418F42B1802C0982C212CAA
:10313000A4FE10C0B60180E390E00E94F618A2FE43
:1031400017C0A1FC03C088E790E002C088E590E0CA
:10315000B6010CC08A2D867859F0A1FE02C08BE220
:1031600001C080E2A7FC8DE2B60190E00E94F61853
:10317000891438F4B60180E390E00E94F6189A941E
:10318000F7CF8A94F301E80DF11D8081B60190E03C
:103190000E94F6188110F5CF222009F442CEB60124
:1031A00080E290E00E94F6182A94F6CFF60186811C
:1031B000978102C08FEF9FEF2B96E2E10C94AC1940
:1031C000FC010590615070400110D8F780959095F2
:1031D0008E0F9F1F0895FC016150704001900110F7
:1031E000D8F7809590958E0F9F1F08950F931F938A
:1031F000CF93DF93FB01238121FD03C08FEF9FEF6E
:103200002CC022FF16C04681578124813581421788
:10321000530744F4A081B1819D012F5F3F4F31835B
:1032200020838C93268137812F5F3F4F37832683FE
:1032300014C08B01EC01FB010084F185E02D0995A0
:10324000892BE1F6D80116968D919C9117970196DE
:1032500017969C938E931697CE01DF91CF911F9175
:103260000F910895FA01AA27283051F1203181F1F8
:10327000E8946F936E7F6E5F7F4F8F4F9F4FAF4F7E
:10328000B1E03ED0B4E03CD0670F781F891F9A1F91
:10329000A11D680F791F8A1F911DA11D6A0F711D45
:1032A000811D911DA11D20D009F468943F912AE051
:1032B000269F11243019305D3193DEF6CF01089539
:1032C000462F4770405D4193B3E00FD0C9F7F6CF6A
:1032D000462F4F70405D4A3318F0495D31FD405232
:1032E000419302D0A9F7EACFB4E0A69597958795C8
:1032F00077956795BA95C9F70097610571050895A7
:103300009B01AC010A2E0694579547953795279552
:10331000BA95C9F7620F731F841F951FA01D0895EA
:103320002F923F924F925F926F927F928F929F92D5
:10333000AF92BF92CF92DF92EF92FF920F931F93C3
:10334000CF93DF93CDB7DEB7CA1BDB0B0FB6F89474
:10335000DEBF0FBECDBF09942A88398848885F84B4
:103360006E847D848C849B84AA84B984C884DF8025
:10337000EE80FD800C811B81AA81B981CE0FD11D09
:103380000FB6F894DEBF0FBECDBFED010895F894DF
:02339000FFCF6D
:1033920000E10000010100010108000100E100005C
:1033A2000000000101080001060000010101060001
:1033B20000020202040003000101000800000000F4
:1033C20000000000000000005F0000000000000795
:1033D200000700000000147F147F14000000242A5C
:1033E2007F2A1200000245320826512000324D4940
:1033F2005120500000000004030100000000001CE6
:103402002241000000000041221C00000004442868
:103412001F284404000808087F080808000080608C
:1034220020000000000808080808080800000060E2
:10343200600000000000C0300C030000003E41416B
:1034420041413E00000000027F0000000042615145
:1034520049454200002241494949360000101814EA
:10346200527F5000004F494949493100003C4A49C6
:103472004949300000010141310D0300003649493C
:10348200494936000006494949291E0000000066E4
:103492006600000000008066260000000008081494
:1034A200142222000024242424242424002222146E
:1034B200140808000000020151090600001C2249FC
:1034C2005549120C0040701C171C7040007F49497E
:1034D20049494936001C224141414122007F414174
:1034E2004141221C007F494949494141007F090964
:1034F20009090101001C22414149497A007F08085B
:103502000808087F000041417F41410000304040EF
:1035120041413F00007F080814224100007F4040E3
:1035220040404000007F02040804027F007F020442
:103532000810207F001C22414141221C007F090902
:1035420009090906001C224141C1A29C007F090908
:103552000919294600264949494949320001010110
:103562007F010101003F40404040403F00010718F9
:1035720060180701007F20100810207F00412214EC
:103582000814224100010204780402010041615141
:1035920049454341000000007F4141000000030C07
:1035A20030C00000000041417F0000000000040222
:1035B2000102040000808080808080800000000181
:1035C20003040000003844444444247C007F444403
:1035D2004444443800384444444444000038444499
:1035E2004444447F003854545454541800047E0513
:1035F200050101000018A4A4A4A4A47C007F040473
:1036020004040478000044447D40400000008084AB
:1036120084847D00007F1010284444000000004193
:103622007F400000007C040438040478007C080415
:1036320004040478003844444444443800FC4444BC
:103642004444443800384444444444FC00007C0868
:103652000404040000485454545424000004043F59
:1036620044444400003C40404040207C00040C3074
:1036720040300C04003C40403840403C0044442868
:1036820010284444001CA0A0A0A07C000044645464
:10369200544C4400000000083641000000000000C5
:1036A2007F00000000000041360800000006010112
:1036B2000204040320206D5365633A2000755365AC
:1036C200633A200054656D703A20256400636F6C84
:1036D2006C656374696E6720312E2E2E00436F6C09
:1036E2006C65637465643A20312F3200636F6C6CD1
:1036F200656374696E6720322E2E2E00436F6C6CE8
:1037020065637465643A20322F320054656D706CC3
:103712006174652047656E2E206661696C65642060
:1037220000436861722066696C65203220666169B7
:103732006C65642000436861722066696C652031A3
:10374200206661696C65642000465020536176658D
:10375200640073746F726167652066616C69656489
:103762000074656D702067656E206661696C6564C2
:02377200200035
:00000001FF
