:100000000C942A000C944D110C9476110C949F11B1
:100010000C9447000C94AA100C9447000C944700D1
:100020000C9447000C9447000C9447000C94470034
:100030000C9447000C94510F0C94F90E0C942D0F56
:100040000C9447000C9447000C9447000C94470014
:100050000C94470011241FBECFE5D8E0DEBFCDBF12
:1000600011E0A0E6B0E0E4E5F1E302C005900D92F6
:10007000AA39B107D9F725E0AAE9B1E001C01D927C
:10008000A33CB207E1F70E94A9130C94A8180C94A2
:1000900000000E949E0F0E947F0C8AE790E00E9461
:1000A000E00C0E94F30181E00E94B70782E00E9409
:1000B000B70783E00E94B70784E00C94B7070E945B
:1000C0009E0F0E947F0C0E9413080E94D9080E9474
:1000D000A70D0E94D80A0E94F30141E066E080E08B
:1000E0000E94D41140E066E080E00E94181241E0D6
:1000F00066E082E00C94D411CF93DF930E94E30B6F
:10010000EC0184E690E00E94EF0F0E94E30B8C1755
:100110009D0728F0C817D90720F082E003C080E0CF
:1001200001C081E0DF91CF9108950E94E30B90938D
:100130009D0180939C0108950E947C0020919A016A
:1001400030919B01811103C02F5F3F4F04C081306C
:1001500031F42150310930939B0120939A01809111
:100160009A0190919B018330910538F441E066E05B
:1001700080E00E94181240E009C0039740E066E06A
:10018000079750F480E00E94181241E065E080E09B
:100190000E94181240E009C080E00E94181240E05E
:1001A00065E080E00E94181241E064E080E00C9479
:1001B00018120E9462079C012150310940E050E072
:1001C00062E070E02230310518F483E890E00AC064
:1001D0008330910519F481E990E004C0049731F46B
:1001E00082EA90E00E94800881E0089580EB90E030
:1001F0000E94800880E00895CF93DF9300D000D064
:10020000CDB7DEB719821A821B821C820E94380B7E
:100210008239E1F70E94FB0A882309F45DC080EE71
:1002200090E00E94E00CCE0101960E943B0B698198
:100230007A818B819C810E94AE1341E0663D7344BC
:1002400086439740F9F466E082E00E94181284EF3A
:1002500091E00E94EF0F40E066E082E00E941812F9
:1002600061E080E80E94EF0C8AEB90E00E94E00CD5
:1002700061E084E90E94EF0C86EC90E00E94E00CC3
:1002800081E033C066E082E00E94181284EF91E0C2
:100290000E94EF0F40E066E082E00E94181284EFB7
:1002A00091E00E94EF0F41E066E082E00E941812A8
:1002B00084EF91E00E94EF0F40E066E082E00E9450
:1002C000181284EF91E00E94EF0F61E084E90E9430
:1002D000EF0C80ED90E006C00E94FB0A811104C083
:1002E0008CED90E00E94E00C80E00F900F900F905A
:1002F0000F90DF91CF9108956623A1F0882391F0AC
:1003000041E066E080E00E94181284EF91E00E94D4
:10031000EF0F40E066E080E00E94181284EF91E069
:100320000C94EF0F40E066E080E00C941812CF933D
:10033000DF93CDB7DEB760970FB6F894DEBF0FBE80
:10034000CDBF8E010F5F1F4F80E1F80111928A959A
:10035000E9F70E949E0F0E947F0C0E94B30B89EE6A
:10036000E82E80E0F82E0E949C0080919B018F93E4
:1003700080919A018F93FF92EF921F930F930E94A7
:10038000BE15C8010E94E00C88E592E00E94EF0FC4
:100390000E94BA0C0F900F900F900F900F900F903B
:1003A000E2CF0E945F000E94D900C82FD0E0C13088
:1003B00081F4D13051F461E081E00E947C018CEE47
:1003C00090E00E94E00C0E9497010E94FC00D82F50
:1003D00003C00E94D900C82F88E592E00E94EF0F69
:1003E0000E94BA0CE4CFEF92FF920F931F93E0901C
:1003F0006000F09061000091620010916300209114
:1004000064003091650040916600509167006091F2
:1004100068007091690080916A0090916B000E9461
:10042000440E88EC90E01F910F91FF90EF900C9498
:10043000EF0FCF92DF92EF92FF920F931F93CF9324
:10044000DF93CDB7DEB78C8590E00E94AB0E8B8535
:1004500090E00E94AB0E8E010F5E1F4F7E018DE07B
:10046000E80EF11CF80182918F0190E00E94AB0E22
:100470000E151F05B9F7898990E00E94AB0EEB8835
:10048000F12CC7010E94AB0E8A89082F10E0C80129
:100490000E94AB0EFE2CEE240E291F2902501109DA
:1004A000CE010B966C017C01C7018C199D09801748
:1004B000910748F4F701818590E00E94AB0EFFEFB1
:1004C000EF1AFF0AF1CFCB5EDE4F8881C551D140D4
:1004D00090E00E94AB0ECC5EDE4F8881C451D140CB
:1004E00090E00E94AB0E81E0DF91CF911F910F91C0
:1004F000FF90EF90DF90CF900895CF92DF92EF9230
:10050000FF920F931F93CF93DF93CDB7DEB78C8508
:1005100090E00E94DC0E8B8590E00E94DC0E8E0144
:100520000F5E1F4F7E018DE0E80EF11CF8018291F5
:100530008F0190E00E94DC0E0E151F05B9F7898926
:1005400090E00E94DC0EEB88F12CC7010E94DC0ECB
:100550008A89082F10E0C8010E94DC0EFE2CEE24D0
:100560000E291F2902501109CE010B966C017C0146
:10057000C7018C199D098017910748F4F7018185FF
:1005800090E00E94DC0EFFEFEF1AFF0AF1CFCB5E86
:10059000DE4F8881C551D14090E00E94DC0ECC5ED8
:1005A000DE4F8881C451D14090E00E94DC0E81E092
:1005B000DF91CF911F910F91FF90EF90DF90CF903F
:1005C0000895CF92DF92EF92FF920F931F93CF93F4
:1005D000DF93EC010E94B60E89830E94B60E8883D9
:1005E0008E010A5F1F4F7E0182E0E80EF11C0E941F
:1005F000B60EF80182938F01EE16FF06C1F70E9436
:10060000B60E8E830E94B60E88870E94B60E8F8328
:100610009885082F10E0192B025011096E01F9E09E
:10062000CF0ED11CE12CF12CE016F10648F40E940B
:10063000B60EF60181936F01FFEFEF1AFF0AF4CFB8
:100640000E94B60EFE01E65FFE4F80830E94B60E4A
:10065000C75FDE4F888381E0DF91CF911F910F91BB
:10066000FF90EF90DF90CF900895EF92FF920F935D
:100670001F93CF93DF93EC0101E010E00E94EC0E9A
:100680008E3029F0FE01E00FF11F808302C00F5F62
:100690001F4F0150110917FFF1CF03E010E00E9436
:1006A000EC0E8E3029F0FE01E00FF11F828302C0B4
:1006B0000F5F1F4F0150110917FFF1CF0E94EC0E81
:1006C0008E30E1F38E8301E010E00E94EC0E8E305C
:1006D00029F0FE01E00FF11F878302C00F5F1F4F5B
:1006E0000150110917FFF1CFEF80F88482E0E81A7A
:1006F000F10800E010E00E151F0570F40E94EC0EEA
:100700008E3029F0FE01E00FF11F818702C00150F9
:1007100011090F5F1F4FEFCF01E010E00E94EC0EB8
:100720008E3039F0FE01E00FF11FE75FFE4F80834E
:1007300002C00F5F1F4F0150110917FFEFCF81E07B
:10074000DF91CF911F910F91FF90EF900895CF937C
:10075000DF93CDB7DEB74B852C853D858C8590E04A
:10076000840F911D4D85840F911D22503109BE01CA
:100770006B5F7F4FFB01AF01461B570B42175307BF
:1007800028F44185840F911D3196F5CFDF91CF91EB
:100790000895CF93DF93EC0181E09FEE99838883E6
:1007A0008FEF9FEFDC018A839B83AC83BD836E83D5
:1007B0004F835887DE011996F90142505109CF0144
:1007C000821B930B8417950718F481918D93F7CFB3
:1007D0002DB73EB72B5031400FB6F8943EBF0FBE39
:1007E0002DBFADB7BEB711968BE091E0FE01019031
:1007F0000D920197E1F70E94A7032DB73EB7255F41
:100800003E4F0FB6F8943EBF0FBE2DBFC75FDE4F01
:1008100099838883DF91CF910895EF92FF920F9390
:100820001F93CF93DF93CDB7DEB7CB51D2400FB636
:10083000F894DEBF0FBECDBF8E01045F1E4F2BE0CC
:1008400031E0F801A901119241505040E1F7FE0159
:1008500031967F01A901119241505040E1F723E107
:10086000C95EDD4F2883C751D240C85EDD4F688323
:10087000C851D240C75EDD4F7883C951D240C65EB1
:10088000DD4F8883CA51D240C55EDD4F9883CB517E
:10089000D2409E01295E3D4F47E050E061E0C80133
:1008A0000E94C9038DB79EB78B5091400FB6F89444
:1008B0009EBF0FBE8DBFADB7BEB711968BE091E066
:1008C000F80101900D920197E1F70E947D020FB6A9
:1008D000F894DEBF0FBECDBFC7010E9435038A85E5
:1008E000C55EDD4F0FB6F894DEBF0FBECDBFDF9102
:1008F000CF911F910F91FF90EF900895EF92FF928B
:100900000F931F93CF93DF93CDB7DEB7C751D2407C
:100910000FB6F894DEBF0FBECDBF8E01045F1E4F31
:100920008BE091E0F8019C01119221503040E1F7F9
:10093000FE0131967F019C01119221503040E1F778
:1009400081E0C95EDD4F8883C751D2409E01295E98
:100950003D4F43E050E061E0C8010E94C9038DB7FC
:100960009EB78B5091400FB6F8949EBF0FBE8DBFBF
:10097000ADB7BEB711968BE091E0F80101900D92F2
:100980000197E1F70E947D020FB6F894DEBF0FBE1B
:10099000CDBFC7010E9435038A85C95EDD4F0FB602
:1009A000F894DEBF0FBECDBFDF91CF911F910F91A5
:1009B000FF90EF900895EF92FF920F931F93CF93C4
:1009C000DF93CDB7DEB7C751D2400FB6F894DEBF84
:1009D0000FBECDBF8E01045F1E4F8BE091E0F8018A
:1009E0009C01119221503040E1F7FE0131967F01C8
:1009F0009C01119221503040E1F78AE0C95EDD4F41
:100A00008883C751D2409E01295E3D4F43E050E0AC
:100A100061E0C8010E94C9038DB79EB78B50914019
:100A20000FB6F8949EBF0FBE8DBFADB7BEB711967F
:100A30008BE091E0F80101900D920197E1F70E949F
:100A40007D020FB6F894DEBF0FBECDBFC7010E9476
:100A500035038A85C95EDD4F0FB6F894DEBF0FBE41
:100A6000CDBFDF91CF911F910F91FF90EF9008952F
:100A7000EF92FF920F931F93CF93DF93CDB7DEB723
:100A8000C851D2400FB6F894DEBF0FBECDBF8E0165
:100A9000045F1E4F2BE031E0F801A9011192415093
:100AA0005040E1F7FE0131967F01A90111924150BA
:100AB0005040E1F792E0C95EDD4F9883C751D240C4
:100AC000C85EDD4F8883C851D2409E01295E3D4FEC
:100AD00044E050E061E0C8010E94C9038DB79EB7B1
:100AE0008B5091400FB6F8949EBF0FBE8DBFADB72F
:100AF000BEB711968BE091E0F80101900D9201973D
:100B0000E1F70E947D020FB6F894DEBF0FBECDBFA5
:100B1000C7010E9435038A85C85EDD4F0FB6F89481
:100B2000DEBF0FBECDBFDF91CF911F910F91FF9020
:100B3000EF900895EF92FF920F931F93CF93DF935F
:100B4000CDB7DEB7C751D2400FB6F894DEBF0FBEA7
:100B5000CDBF8E01045F1E4F8BE091E0F8019C0138
:100B6000119221503040E1F7FE0131967F019C0146
:100B7000119221503040E1F785E0C95EDD4F888356
:100B8000C751D2409E01295E3D4F43E050E061E0F5
:100B9000C8010E94C9038DB79EB78B5091400FB614
:100BA000F8949EBF0FBE8DBFADB7BEB711968BE058
:100BB00091E0F80101900D920197E1F70E947D020A
:100BC0000FB6F894DEBF0FBECDBFC7010E9435033C
:100BD0008A85C95EDD4F0FB6F894DEBF0FBECDBF6C
:100BE000DF91CF911F910F91FF90EF900895EF92B9
:100BF000FF920F931F93CF93DF93CDB7DEB7CA5108
:100C0000D2400FB6F894DEBF0FBECDBF8E01045F99
:100C10001E4F2BE031E0F801A901119241505040E4
:100C2000E1F7FE0131967F01A90111924150504038
:100C3000E1F796E0C95EDD4F9883C751D240C85EA8
:100C4000DD4F8883C851D240C75EDD4F7883C951DC
:100C5000D240C65EDD4F6883CA51D2409E01295EF4
:100C60003D4F46E050E061E0C8010E94C9038DB7E6
:100C70009EB78B5091400FB6F8949EBF0FBE8DBFAC
:100C8000ADB7BEB711968BE091E0F80101900D92DF
:100C90000197E1F70E947D020FB6F894DEBF0FBE08
:100CA000CDBFC7010E9435038A85C65EDD4F0FB6F2
:100CB000F894DEBF0FBECDBFDF91CF911F910F9192
:100CC000FF90EF900895EF92FF920F931F93CF93B1
:100CD000DF93CDB7DEB7CB51D2400FB6F894DEBF6D
:100CE0000FBECDBF8E01045F1E4F2BE031E0F80137
:100CF000A901119241505040E1F7FE0131967F0168
:100D0000A901119241505040E1F79CE0C95EDD4FCE
:100D10009883C751D240C85EDD4F1882C851D24077
:100D2000C75EDD4F8883C951D240C65EDD4F7883F0
:100D3000CA51D240C55EDD4F6883CB51D2409E017F
:100D4000295E3D4F47E050E061E0C8010E94C903C1
:100D50008DB79EB78B5091400FB6F8949EBF0FBED3
:100D60008DBFADB7BEB711968BE091E0F801019051
:100D70000D920197E1F70E947D020FB6F894DEBF55
:100D80000FBECDBFC7010E9435038A85C55EDD4F0A
:100D90000FB6F894DEBF0FBECDBFDF91CF911F918C
:100DA0000F91FF90EF900895AF92BF92CF92DF9294
:100DB000EF92FF920F931F93CF93DF93CDB7DEB7E0
:100DC000CC51D2400FB6F894DEBF0FBECDBF690143
:100DD0007E0124EFE21A2EEFF20A0BE011E0F70198
:100DE0009801119221503040E1F7FE0131965F01E8
:100DF0009801119221503040E1F794E0C95EDD4F37
:100E00009883C751D240C85EDD4F8883C851D24015
:100E1000C75EDD4F7883C951D240C65EDD4F68831F
:100E2000CA51D240C55EDD4F5883CB51D240C45E1B
:100E3000DD4F4883CC51D2409E01295E3D4F48E0B2
:100E400050E061E0C7010E94C9038DB79EB78B5087
:100E500091400FB6F8949EBF0FBE8DBFADB7BEB721
:100E60001196F70101900D9201501040D9F70E94A0
:100E70007D020FB6F894DEBF0FBECDBFC5010E9444
:100E800035038A85811109C02B853C8532272327AC
:100E90003227F6013183208303C0F60111821082CC
:100EA000C45EDD4F0FB6F894DEBF0FBECDBFDF913D
:100EB000CF911F910F91FF90EF90DF90CF90BF9057
:100EC000AF900895CF93DF9300D0CDB7DEB70E94E7
:100ED0007E04882339F00E94BA0C85EF90E00E94CE
:100EE000E00CF5CF81E00E943805811133C00E94EB
:100EF000BA0C85E091E00E94E00C0E947E048823F9
:100F000029F00E94BA0C84E191E0F5CF82E00E94C2
:100F1000380581111AC00E94BA0C84E291E00E9447
:100F2000E00C0E949A0581110BC09E012F5F3F4F7C
:100F300046E050E061E070E081E00E94D40610C01D
:100F40000E94BA0C83E391E009C00E94BA0C89E4C4
:100F500091E004C00E94BA0C8DE591E00E94E00C83
:100F600089819A810F900F90DF91CF910895CF934F
:100F7000C82F0E947E04882339F00E94BA0C85EFA6
:100F800090E00E94E00CF5CF81E00E9438058111CD
:100F90003BC00E94BA0C85E091E00E94E00C0E94E8
:100FA0007E04882329F00E94BA0C84E191E0F5CFF9
:100FB00082E00E943805811122C00E94BA0C84E2AE
:100FC00091E00E94E00C0E949A05811113C06C2FE1
:100FD00070E081E00E94F705811103C081E791E094
:100FE00002C08AE791E00E94E00C80ED97E0CF918B
:100FF0000C94EF0F0E94BA0C89E891E009C00E949E
:10100000BA0C89E491E004C00E94BA0C8DE591E02D
:10101000CF910C94E00C682F80E80C947E0D682F23
:1010200080E40C947E0D0E94160D8EEA0E940B083F
:1010300085ED0E940B0880E80E940B0888EA0E9458
:101040000B088FE30E940B0883ED0E940B0880E0E1
:101050000E940B0880E40E940B088DE80E940B0898
:1010600084E10E940B0880E20E940B0880E00E944D
:101070000B0881EA0E940B0888EC0E940B088AED9D
:101080000E940B0882E10E940B0881E80E940B0875
:101090008FEC0E940B0889ED0E940B0881EF0E94E3
:1010A0000B088BED0E940B0880E40E940B0884EA79
:1010B0000E940B0886EA0E940B088FEA0C940B082A
:1010C0008FEA0C940B088EEA0C940B08CF93C62F72
:1010D00080550E940B088C2F880F880F880F88700E
:1010E0000E940B0828E0C29FC001112424E09595BE
:1010F00087952A95E1F78F70805FCF910C940B084C
:10110000CF92DF92EF92FF920F931F93CF93DF93D3
:101110001F92CDB7DEB78C01862F1982642F0E94F3
:1011200066087801F70101917F010023D9F010E0F2
:101130000052110983E0000F111F8A95E1F7680141
:1011400088E0C80ED11CBE016F5F7F4FC8010E94AE
:10115000040D89810E940F080F5F1F4F0C151D059C
:1011600091F7E0CF0F90DF91CF911F910F91FF90FA
:10117000EF90DF90CF900895EF92FF920F931F931F
:10118000CF93DF937C018B01842F622F0E9466082E
:10119000E7010E0D1F1DC017D10721F089910E9494
:1011A0000F08F9CFDF91CF911F910F91FF90EF9032
:1011B0000895CF93DF93C0E060E08C2F0E94660813
:1011C000D0E080E00E940F08DF5FD038D1F7CF5F1A
:1011D000C83091F7DF91CF910895CF9360E00E94DE
:1011E0006608C0E080E00E940F08CF5FC038D1F7EA
:1011F000CF9108950E9463080E94D9080C9460085A
:10120000C398880F8E7780680E94B60D80E00E9498
:10121000B60DC39A08958F929F92AF92BF92CF92CC
:10122000DF92FF920F931F93CF93DF93CDB7DEB77B
:101230006E970FB6F894DEBF0FBECDBF6A016F5F29
:10124000FE0131969EE1DF011D929A95E9F7C39860
:10125000880F8E778068F82EA12CB12C062F10E015
:101260004801B1E08B1A9108A814B9043CF48F2D01
:101270000E94B60D8FEFA81AB80AF6CF80E00E9440
:10128000B60DC39ADE011296F601CF018C199D09A5
:10129000801791071CF48D918193F7CF6E960FB64E
:1012A000F894DEBF0FBECDBFDF91CF911F910F919C
:1012B000FF90DF90CF90BF90AF909F908F90089558
:1012C000CF93C62FC398880F8E770E94B60D8C2FB0
:1012D0000E94B60DC39ACF910895EF92FF920F939B
:1012E0001F93CF93DF93F42ED52FC1E0C60FC39881
:1012F000880F8E770E94B60D0F2D1D2FEE24E394DC
:10130000F12CD0E0EC16FD064CF4F80181918F0130
:101310000E94B60DFFEFEF1AFF0AF4CFC39ADF91D8
:10132000CF911F910F91FF90EF900895CF93DF938E
:10133000D82FC62F0E940009C0956C2F68238D2FCF
:10134000DF91CF910C946009CF93DF93D82FC62FF4
:101350000E940009682F6C2B8D2FDF91CF910C9488
:1013600060096FE081E00E9460092FEF80E792E062
:10137000215080409040E1F700C0000081E00E94D1
:10138000000983FDFBCF0895EF92FF920F931F9307
:10139000CF93DF937C01C62F8A0160E081E00E9439
:1013A000600964E085E00E94600960E88AE00E94CC
:1013B000A409A7016C2F89E00E946D0963E081E018
:1013C0000E946009C8E8D3E185E00E940009982FD7
:1013D000947082FD03C02197B9F70FC060E081E0EF
:1013E0000E94600982E20E940009F801808381E284
:1013F0000E940009F801818391E0892FDF91CF914C
:101400001F910F91FF90EF9008953F924F925F923E
:101410006F927F928F929F92AF92BF92CF92DF9204
:10142000EF92FF920F931F93CF93DF9300D0CDB72E
:10143000DEB7D82E3B01342E5901E114F10419F026
:10144000F701408001C0412CFCE0DF1631F08EE056
:10145000D81206C020E1522E04C090E3592E01C0DC
:10146000512C60E081E00E9460096FE784E00E94F7
:10147000600960E88AE00E94A4094301630C711CC2
:101480008614970439F0F40161914F0189E00E94BC
:101490006009F6CF642D8DE00E9460096D2D81E01A
:1014A0000E946009FCE0DF1204C060E88DE00E9449
:1014B000A40980ED882E87E0982E84E00E94000920
:1014C000952D982349F480FF02C0F12C5CC081E087
:1014D000881A910891F7F9CF86E00E940009782ECA
:1014E000837199F7A114B10421F10115110509F1D6
:1014F0008AE00E940009D82EF80180818D1528F31A
:10150000DD2019F3D0826A2C4501882D86198D15AE
:1015100038F489E00E940009F40181934F01F5CF6E
:101520008CE00E9400098770E114F10411F0F701CA
:101530008083F72DF870FF2E73FCC7CFA114B10480
:1015400001F101151105E9F0CC20D9F0F801608115
:10155000625070E0AE014F5F5F4FC5010E94C40949
:10156000882389F0F8018081A80EB11CF50132971B
:1015700090818981981307C0319690818A81981350
:1015800002C0FF24F3948F2D0F900F90DF91CF9125
:101590001F910F91FF90EF90DF90CF90BF90AF9091
:1015A0009F908F907F906F905F904F903F900895A5
:1015B00060E88AE20E9460096AE98BE20E946009A1
:1015C00063E08CE20E94600968EE8DE20E9460098F
:1015D00060E485E10E9460096DE381E10E94600999
:1015E00084E10E9400098370833021F063E084E18C
:1015F0000C94A4090895CF92EF92FF920F931F933A
:10160000CF93DF9300D000D01F92CDB7DEB782E03A
:101610008D8387E08C8360E88EE00E94960986E2E5
:101620008B83C12CCE0104967C018E010B5F1F4F72
:101630009E012F5F3F4F41E0BE016D5F7F4F8CE009
:101640000E94050A882339F08D81823019F481E0E7
:101650009C81911180E00F900F900F900F900F9050
:10166000DF91CF911F910F91FF90EF90CF90089550
:1016700087E30C940009BF92CF92DF92EF92FF9222
:101680000F931F93CF93DF93CDB7DEB72A970FB693
:10169000F894DEBF0FBECDBFB82ED92E89E08A8761
:1016A00060E88EE00E94960960E08DE00E9460098B
:1016B00083E9898380E28A83C12CE12CF12C8E019D
:1016C000065F1F4F9E012F5F3F4F42E0B9018CE044
:1016D0000E94050A882361F0FE013196AB2DBD2DD5
:1016E000CE01059621912D93E817F907D9F781E0EE
:1016F0002A960FB6F894DEBF0FBECDBFDF91CF9113
:101700001F910F91FF90EF90DF90CF90BF900895C1
:101710008091AA018823A1F01092AA014091720041
:101720005091730060917400709175008091760003
:10173000909177000E94D7108EE991E00C949A1056
:1017400081E08093AA0140916C0050916D006091FE
:101750006E0070916F0080917000909171000E94F6
:10176000D7100C942F100E941B1041E060E080E025
:101770000E94D41140E062E083E00E94D4114091C5
:1017800072005091730060917400709175008091A7
:101790007600909177000E94D71040E050E060E022
:1017A00070E088E89BE00C94401141E060E080E04C
:1017B0000E9418128AE090E00E94061040E060E06B
:1017C00080E00C941812CF92DF92EF92FF92CF93A9
:1017D000DF930E94D50BCEE9D1E06C817D818E81B3
:1017E0009F810E94C31420E030E04AE754E40E9445
:1017F00022146B017C01688179818A819B810E941E
:10180000C3149B01AC01C701B6010E94B6136B0162
:101810007C01688579858A859B850E94C31420E0B8
:1018200034E244E759E40E9422149B01AC01C70151
:10183000B6010E94B61320E030E84BEA53E40E9460
:10184000511520E030E040E05FE30E94511520E0B8
:1018500030E048EC52E40E9451150E949414CB01F0
:10186000DF91CF91FF90EF90DF90CF90089541E00E
:1018700062E080E00E94181281E090E00E94061071
:1018800040E062E080E00C941812CF93C82F482FFC
:10189000417060E081E00E941812C1FB442740F9CA
:1018A00061E081E00E941812C2FB442740F962E027
:1018B00081E00E941812C3FB442740F964E081E0F4
:1018C000CF910C941812CF93C82F82958F700E94DD
:1018D000450C40E063E080E00E9418120E94370C43
:1018E00084E690E00E9406108C2F8F700E94450CB9
:1018F0000E94370C84E690E0CF910C9406100E9471
:101900009E0F41E060E081E00E94D41141E061E07F
:1019100081E00E94D41141E062E081E00E94D41194
:1019200041E064E081E00E94D41141E063E080E0A6
:101930000E94D41141E062E080E00E94D41140E0B6
:1019400062E080E00E94181283E30E94630C82E34D
:101950000E94630C88E20E94630C8EE00E94630C7C
:1019600081E00E94630C80ED97E00E94061086E003
:101970000C94630C81E00E94630C83E00E94630C72
:1019800080ED97E00C940610CF93C82F82958F704E
:101990000E94450C41E063E080E00E9418120E9422
:1019A000370C84E690E00E9406108C2F8F700E9406
:1019B000450C0E94370C84E690E0CF910C94061001
:1019C000CF93DF93EC018991882319F00E94C40C16
:1019D000FACFDF91CF91089580EC0C94630C815085
:1019E000860F0C94630C811524E0920750F4E19962
:1019F000FECF9FBB8EBB6DBBE29AE19A81E090E087
:101A0000089580E090E00895811524E0920758F44D
:101A1000E199FECF9FBB8EBBE09A8DB3FB01808323
:101A200081E090E0089580E090E008958091780052
:101A3000909179008430910571F020F4019781F440
:101A400081B10DC08031910541F08034910541F4A0
:101A500081B1836004C0089A03C0099A01C081B9AA
:101A600088E480B9089584EE86BF06B607FEFDCFF0
:101A700091B1987F21E030E0983011F420E030E01F
:101A8000C901089583B984E886BF06B607FEFDCF75
:101A900081B1887F883219F480E090E0089585E074
:101AA00090E0089583B984E886BF06B607FEFDCFAF
:101AB00080E090E008950C94520D84EE86BF06B647
:101AC00007FEFDCF81B1887F803119F480E090E07E
:101AD000089582E090E0089584E886BF06B607FE88
:101AE000FDCF83B1089584EC86BF06B607FEFDCF17
:101AF00083B190E0089584ED86BF0895CF93DF937E
:101B0000D82FC62F0E94330D88E70E94520D8D2FCB
:101B10000E94420D8C2F0E94520D84ED86BFDF91F2
:101B2000CF910895CF93C82F0E94330D88E70E946C
:101B3000520D8C2F0E94420D0E945D0D89E70E947C
:101B4000520D0E946C0D94ED96BFCF910895709840
:101B50006D986B986A986F986E9ABD9ABF9ABB9A67
:101B6000BE98C39A6C9A689A699808958FB9779BC2
:101B7000FECF8FB10895CF93DF9300D0CDB7DEB7FE
:101B8000262F1A821982BC0180E090E0213039F4BE
:101B90000E94C31420E030E040E051E406C00E94FF
:101BA000C31420E030E040E851E40E9451159B014D
:101BB000AC0160E074E284E79BE40E94221420E020
:101BC00030E040E85FE30E94B5130E9494147A83EA
:101BD000698380B58F7780BD89819A8190BD898125
:101BE0009A8189B980B5806880BD0F900F90DF9190
:101BF000CF9108959091C205813011F4977F01C073
:101C000098609093C2050895813041F018F08230B9
:101C100051F008958091C2058F7C08C08091C20563
:101C20008F7E806203C08091C20580638093C2056D
:101C300008958730A1F028F4853041F0863051F0C6
:101C40000895883089F08930B1F008959091C205E7
:101C5000997F0DC09091C2059B7F926008C09091C2
:101C6000C2059D7F946003C09091C20596609093D9
:101C7000C205529806C09091C20596609093C20525
:101C8000529A8093C1050895EF92FF920F931F938C
:101C9000CF93DF93CDB7DEB72C970FB6F894DEBFA6
:101CA0000FBECDBFE982FA820B831C832D833E8356
:101CB0004F83588769877A878B879C87899A602F9B
:101CC00089819A810E94BB0D013009F4599A8C8157
:101CD000813009F4589A8D81813021F4579A8FB759
:101CE00080688FBF8E81813021F4569A8FB78068CB
:101CF0008FBF8F81813021F4559A8FB780688FBF55
:101D00008885813009F4549A8985813009F4539A81
:101D10008A850E94190E8B850E94040E8C850E9474
:101D2000FA0D8091C20580688093C20580BD81EB69
:101D300093E00E940A138BEA91E02C960FB6F89478
:101D4000DEBF0FBECDBFDF91CF911F910F91FF90EE
:101D5000EF900C940A135D9BFECF2091C1052930B2
:101D600019F4509890FD509A8CB908955F9BFECF5E
:101D70002091C105293059F43BB12AB14CB13C71D5
:101D800049F426952170922F80E0842B08958CB120
:101D900090E008958FEF9FEF0895CF93DF93EC01CC
:101DA0008991882331F0082E000C990B0E94AB0E0C
:101DB000F7CFDF91CF9108955D9B09C02091C105B8
:101DC000293019F4509890FD509A8CB90895BC01AF
:101DD00081EB93E00C9482138BEA91E00E94311323
:101DE000811104C08BEA91E00C9446138EE090E0E0
:101DF00008951F920F920FB60F9211242F933F93C5
:101E00004F935F936F937F938F939F93AF93BF9302
:101E1000EF93FF9381EB93E00E94311381110CC08B
:101E200081EB93E00E9446132091C105293019F4FB
:101E3000509890FD509A8CB9FF91EF91BF91AF915E
:101E40009F918F917F916F915F914F913F912F91D2
:101E50000F900FBE0F901F9018951F920F920FB604
:101E60000F9211242F933F934F935F936F937F9320
:101E70008F939F93AF93BF93EF93FF930E94F90EBD
:101E8000FF91EF91BF91AF919F918F917F916F9152
:101E90005F914F913F912F910F900FBE0F901F9028
:101EA00018951F920F920FB60F9211242F933F9304
:101EB0004F935F936F937F938F939F93AF93BF9352
:101EC000CF93DF93EF93FF938BEA91E00E946C1323
:101ED000811117C08091C105893069F49BB18AB125
:101EE0002CB19C7171F486958170D82F80E0C82F39
:101EF000BE01622B02C06CB170E08BEA91E00E94DF
:101F00008213FF91EF91DF91CF91BF91AF919F919C
:101F10008F917F916F915F914F913F912F910F9092
:101F20000FBE0F901F90189583B7816083BF83B752
:101F30008D7F83BF83B78B7F83BF089583B78F7BEC
:101F400083BF83B7886083BF08958830910509F106
:101F500050F48230910591F18330910591F1019710
:101F6000C9F50C94940F883F910569F020F48034F2
:101F7000910591F00895811521E09207B1F0811546
:101F80009440B1F0089583B78E7F83BF83B78D7F70
:101F900008C083B78E7F02C083B7816083BF83B7D9
:101FA000826083BF83B78B7F14C083B78E7F02C0EC
:101FB00083B7816083BF83B78D7F08C083B78E7F6F
:101FC00002C083B7816083BF83B7826083BF83B75A
:101FD000846083BF089588EF90E00C94A50FCF93A1
:101FE000DF93EC018AEF8CBF80E490E00E94A50FA4
:101FF000209741F008B601FEFDCF88B7826088BF08
:102000002197F6CFDF91CF910C94EB0FCF93DF9315
:10201000EC0180E18CBF0E94940F209741F008B63C
:1020200001FEFDCF88B7826088BF2197F6CFDF9190
:10203000CF910C94EB0F85B58F7785BD85B58F7BE0
:1020400085BD85B5877F85BD85B58F7E85BD85B509
:102050008F7D85BD89B7806489BF0C94D01185B50B
:10206000816085BD0895CF92DF92EF92FF921F931A
:10207000CF93DF93EC0114B56091B7057091B8056B
:102080008091B9059091BA050E94C3142DEB37E3F6
:1020900046E857E30E9451156B017C01612F70E007
:1020A00080E090E00E94C5142DEB37E346E853E34F
:1020B0000E9451159B01AC01C701B6010E94B613E5
:1020C0006B017C010E949414688379838A839B83CB
:1020D0000E94C3149B01AC01C701B6010E94B51355
:1020E00020E030E04AE754E40E9451156B017C0186
:1020F0000E9494146C837D838E839F830E94C314FB
:102100009B01AC01C701B6010E94B51320E030E08D
:102110004AE754E40E9451150E9494146887798715
:102120008A879B87DF91CF911F91FF90EF90DF907F
:10213000CF90089525B52E7F25BD0E9433101092B3
:10214000B7051092B8051092B9051092BA05089516
:102150000C9433101F920F920FB60F9211248F938D
:102160009F93AF93BF938091B7059091B805A091CD
:10217000B905B091BA050196A11DB11D8093B705AF
:102180009093B805A093B905B093BA05BF91AF91EC
:102190009F918F910F900FBE0F901F9018958FB742
:1021A0008F778FBF08958FB780688FBF0895CF93C3
:1021B000DF9300D000D000D0CDB7DEB749835A837B
:1021C0006B837C838D839E839FB790689FBF99812B
:1021D0009630C9F49BB790649BBF95B7711102C04C
:1021E0009E7F03C0733031F4916095BF95B79D7F9A
:1021F00095BF0CC0713011F49E7F01C0916095BFF6
:1022000095B79260F5CF9BB79F7B9BBF9A81973024
:10221000C9F49BB790689BBF95B7811102C09B7FA3
:1022200003C0833031F4946095BF95B7977F95BF15
:102230000CC0813011F49B7F01C0946095BF95B7AD
:102240009860F5CF9BB79F779BBF9B81953061F4DA
:102250009BB790629BBF823019F484B7806402C040
:1022600084B78F7B84BF03C08BB78F7D8BBF2696CF
:102270000FB6F894DEBF0FBECDBFDF91CF910895AA
:102280009093C0058093BF057093BE056093BD0514
:102290005093BC054093BB0508951F920F920FB653
:1022A0000F9211242F933F934F935F936F937F93DC
:1022B0008F939F93AF93BF93EF93FF93E091BF05ED
:1022C000F091C005309709F00995FF91EF91BF910A
:1022D000AF919F918F917F916F915F914F913F91BE
:1022E0002F910F900FBE0F901F9018951F920F9275
:1022F0000FB60F9211242F933F934F935F936F93D9
:102300007F938F939F93AF93BF93EF93FF93E0914E
:10231000BD05F091BE05309709F00995FF91EF9149
:10232000BF91AF919F918F917F916F915F914F91ED
:102330003F912F910F900FBE0F901F9018951F92F5
:102340000F920FB60F9211242F933F934F935F93E9
:102350006F937F938F939F93AF93BF93EF93FF936D
:10236000E091BB05F091BC05309709F00995FF910C
:10237000EF91BF91AF919F918F917F916F915F91FD
:102380004F913F912F910F900FBE0F901F90189576
:10239000F8940895789408958FB78F778FBF089534
:1023A0008FB780688FBF08958130A9F028F0823000
:1023B00009F1833071F108952AB381E090E001C002
:1023C000880F6A95EAF7411103C08095822301C006
:1023D000822B8ABB089527B381E090E001C0880F6B
:1023E0006A95EAF7411103C08095822301C0822BD0
:1023F00087BB089524B381E090E001C0880F6A95FF
:10240000EAF7411103C08095822301C0822B84BB6F
:10241000089521B381E090E001C0880F6A95EAF742
:10242000411103C08095822301C0822B81BB089596
:102430008130A9F028F0823009F1833071F10895DC
:102440002BB381E090E001C0880F6A95EAF7411153
:1024500003C08095822301C0822B8BBB089528B3D3
:1024600081E090E001C0880F6A95EAF7411103C04E
:102470008095822301C0822B88BB089525B381E01B
:1024800090E001C0880F6A95EAF7411103C080957A
:10249000822301C0822B85BB089522B381E090E0A6
:1024A00001C0880F6A95EAF7411103C08095822325
:1024B00001C0822B82BB0895813081F028F08230E8
:1024C000B9F08330F9F008952BB381E090E001C0BA
:1024D000880F6A95EAF782278BBB089528B381E0BD
:1024E00090E001C0880F6A95EAF7822788BB0895BB
:1024F00025B381E090E001C0880F6A95EAF7822752
:1025000085BB089522B381E090E001C0880F6A95F1
:10251000EAF7822782BB0895813069F028F0823083
:1025200089F08330B1F00895611102C01ABA08959C
:102530008FEF8ABB0895611102C017BA08958FEF1B
:1025400087BB0895611102C014BA08958FEF84BB50
:102550000895611102C011BA08958FEF81BB0895EB
:10256000813041F028F0823039F0833039F008951D
:102570006BBB089568BB089565BB089562BB089561
:10258000813049F030F0823041F08330C1F420B323
:1025900005C029B303C026B301C023B381E090E096
:1025A000062E02C0880F991F0A94E2F730E08223BA
:1025B000932302C0959587956A95E2F7089580E088
:1025C0000895813051F028F0823059F0833069F05D
:1025D00008958BB380958BBB089588B3809588BB95
:1025E000089585B3809585BB089582B3809582BB9D
:1025F0000895813049F030F0823041F0833041F469
:1026000080B3089589B3089586B3089583B3089578
:1026100080E00895FC01EC5FFD4F11821082349739
:10262000118210823296118210820895FC0120815D
:1026300031812F5F3F4F211581E0380719F4118256
:1026400010820895318320830895FC012081318117
:1026500021503109318320830895FC0180819181CB
:102660000895FC01EC5FFD4F20813181232B61F443
:10267000DC01AE5FBD4F349781E04D915C912081CC
:1026800031814217530709F080E008950F931F939B
:10269000CF93DF93EC010E943113811116C0CE015C
:1026A0009E5FDC01ED91FC91EE0FFF1FEC0FFD1F13
:1026B000008111810E941613CC5FDD4F88819981C2
:1026C000019799838883C80102C08EE090E0DF9172
:1026D000CF911F910F910895FC01EC5FFD4F208178
:1026E00031812115314061F4DC01AE5FBD4F34977B
:1026F00081E04D915C91208131814217530709F0AF
:1027000080E008950F931F93CF93DF93EC018B012B
:102710000E946C13811117C0CE018E5F9D4FDC01AA
:10272000ED91FC91EE0FFF1FEC0FFD1F1183008355
:102730000E941613CC5FDD4F8881998101969983A1
:10274000888381E001C08FE0DF91CF911F910F91CD
:1027500008950E94D10180E090E0089569279627AE
:10276000692778278727782708955058BB27AA27F5
:102770000E94CD130C9417150E94091538F00E9481
:10278000101520F039F49F3F19F426F40C94061527
:102790000EF4E095E7FB0C940015E92F0E94281534
:1027A00058F3BA17620773078407950720F079F486
:1027B000A6F50C944A150EF4E0950B2EBA2FA02D19
:1027C0000B01B90190010C01CA01A0011124FF27DE
:1027D000591B99F0593F50F4503E68F11A16F040D9
:1027E000A22F232F342F4427585FF3CF46953795D8
:1027F0002795A795F0405395C9F77EF41F16BA0B9D
:10280000620B730B840BBAF09150A1F0FF0FBB1F4A
:10281000661F771F881FC2F70EC0BA0F621F731F93
:10282000841F48F4879577956795B795F7959E3FF0
:1028300008F0B0CF9395880F08F09927EE0F979581
:10284000879508950E9436140C9417150E94101550
:1028500058F00E94091540F029F45F3F29F00C94CC
:10286000001551110C944B150C9406150E94281557
:1028700068F39923B1F3552391F3951B550BBB27AF
:10288000AA2762177307840738F09F5F5F4F220FF4
:10289000331F441FAA1FA9F335D00E2E3AF0E0E8EB
:1028A00032D091505040E695001CCAF72BD0FE2F35
:1028B00029D0660F771F881FBB1F261737074807C9
:1028C000AB07B0E809F0BB0B802DBF01FF27935881
:1028D0005F4F3AF09E3F510578F00C9400150C9430
:1028E0004B155F3FE4F3983ED4F386957795679553
:1028F000B795F7959F5FC9F7880F911D96958795B6
:1029000097F90895E1E0660F771F881FBB1F6217D4
:1029100073078407BA0720F0621B730B840BBA0B92
:10292000EE1F88F7E09508950E94301588F09F57B4
:1029300098F0B92F9927B751B0F0E1F0660F771FE3
:10294000881F991F1AF0BA95C9F714C0B13091F0D9
:102950000E944A15B1E008950C944A15672F782F0C
:102960008827B85F39F0B93FCCF38695779567959E
:10297000B395D9F73EF490958095709561957F4F0A
:102980008F4F9F4F0895E89409C097FB3EF49095B0
:102990008095709561957F4F8F4F9F4F9923A9F038
:1029A000F92F96E9BB279395F695879577956795C7
:1029B000B795F111F8CFFAF4BB0F11F460FF1BC00B
:1029C0006F5F7F4F8F4F9F4F16C0882311F096E99E
:1029D00011C0772321F09EE8872F762F05C066234C
:1029E00071F096E8862F70E060E02AF09A95660F05
:1029F000771F881FDAF7880F9695879597F90895BE
:102A000097F99F6780E870E060E008959FEF80ECA1
:102A1000089500240A941616170618060906089544
:102A200000240A9412161306140605060895092EAA
:102A30000394000C11F4882352F0BB0F40F4BF2B19
:102A400011F460FF04C06F5F7F4F8F4F9F4F089559
:102A500057FD9058440F551F59F05F3F71F047954F
:102A6000880F97FB991F61F09F3F79F08795089534
:102A7000121613061406551FF2CF4695F1DF08C053
:102A8000161617061806991FF1CF86957105610570
:102A900008940895E894BB2766277727CB0197F918
:102AA00008950E9464150C9417150E94091538F0BA
:102AB0000E94101520F0952311F00C9400150C9431
:102AC000061511240C944B150E94281570F3959F40
:102AD000C1F3950F50E0551F629FF001729FBB2715
:102AE000F00DB11D639FAA27F00DB11DAA1F649FB1
:102AF0006627B00DA11D661F829F2227B00DA11D64
:102B0000621F739FB00DA11D621F839FA00D611DE9
:102B1000221F749F3327A00D611D231F849F600D0A
:102B2000211D822F762F6A2F11249F5750409AF033
:102B3000F1F088234AF0EE0FFF1FBB1F661F771FBF
:102B4000881F91505040A9F79E3F510580F00C948A
:102B500000150C944B155F3FE4F3983ED4F3869533
:102B600077956795B795F795E7959F5FC1F7FE2B2A
:102B7000880F911D9695879597F90895AEE0B0E07E
:102B8000E4ECF5E10C947F180D891E8986E08C83B6
:102B90001A8309838FEF9FE79E838D83AE01475E83
:102BA0005F4F6F89788DCE0101960E94E015EF810D
:102BB000F885E00FF11F10822E96E4E00C949B182C
:102BC000ABE0B0E0E6EEF5E10C9471186C017B012E
:102BD0008A01FC0117821682838181FFCCC1CE015C
:102BE00001963C01F6019381F70193FD859193FFD6
:102BF00081917F01882309F4BAC1853239F493FDAC
:102C0000859193FF81917F01853229F4B60190E08F
:102C10000E94D717E7CF912C212C312CFFE1F3151F
:102C2000D8F08B3279F038F4803279F08332A1F425
:102C3000232D20611DC08D3261F0803369F4232D76
:102C4000216016C0832D8260382EE32DE4603E2E75
:102C50002AC0F32DF8601DC037FC2DC020ED280FD1
:102C60002A3040F08E32B9F436FC81C1232D206425
:102C7000322E19C036FE06C08AE0989E200D11241F
:102C8000922E11C0EAE02E9E200D1124222EF32D4B
:102C9000F0623F2E08C08C3621F4832D8068382ED8
:102CA00002C0883641F4F70193FD859193FF81912D
:102CB0007F018111B3CF982F9F7D9554933028F4D5
:102CC0000C5F1F4F9FE399830DC0833631F083372C
:102CD00071F0833509F059C021C0F80180818983E2
:102CE0000E5F1F4F88248394912C530113C0280139
:102CF000F2E04F0E511CF801A080B18036FE03C0F7
:102D0000692D70E002C06FEF7FEFC5010E94CC1704
:102D10004C018201F32DFF773F2E16C0280122E0DF
:102D2000420E511CF801A080B18036FE03C0692D0F
:102D300070E002C06FEF7FEFC5010E94C1174C0128
:102D4000F32DF0683F2E820133FC1BC0822D90E0F2
:102D500088169906B0F4B60180E290E00E94D71779
:102D60002A94F4CFF50137FC859137FE81915F01FC
:102D7000B60190E00E94D71721102A9421E0821A10
:102D800091088114910471F7E8C0843611F08936F6
:102D900041F5F80137FE07C060817181828193811E
:102DA0000C5F1F4F08C060817181072E000C880BDB
:102DB000990B0E5F1F4FF32DFF763F2E97FF09C033
:102DC00090958095709561957F4F8F4F9F4FF068DC
:102DD0003F2E2AE030E0A3010E941318882E8618A7
:102DE00045C0853731F4232D2F7EB22E2AE030E006
:102DF00025C0932D997FB92E8F36C1F018F48835F0
:102E000079F0B5C0803719F0883721F0B0C0E92FCC
:102E1000E061BE2EB4FE0DC0FB2DF460BF2E09C0D4
:102E200034FE0AC0292F2660B22E06C028E030E00A
:102E300005C020E130E002C020E132E0F801B7FE39
:102E400007C060817181828193810C5F1F4F06C032
:102E50006081718180E090E00E5F1F4FA3010E94AE
:102E60001318882E8618FB2DFF773F2E36FE0DC0D7
:102E7000232D2E7FA22E891458F434FE0BC032FC71
:102E800009C0832D8E7EA82E05C0B82CA32C03C0AC
:102E9000B82C01C0B92CA4FE0FC0FE01E80DF11D35
:102EA0008081803321F49A2D997EA92E09C0A2FE3B
:102EB00006C0B394B39404C08A2D867809F0B39405
:102EC000A3FC11C0A0FE06C0B21488F4280C922CFA
:102ED0009B180EC0B21460F4B60180E290E00E942C
:102EE000D717B394F7CFB21418F42B1802C0982C4C
:102EF000212CA4FE10C0B60180E390E00E94D717F9
:102F0000A2FE17C0A1FC03C088E790E002C088E5DC
:102F100090E0B6010CC08A2D867859F0A1FE02C05F
:102F20008BE201C080E2A7FC8DE2B60190E00E9436
:102F3000D717891438F4B60180E390E00E94D717C0
:102F40009A94F7CF8A94F301E80DF11D8081B601C0
:102F500090E00E94D7178110F5CF222009F442CECD
:102F6000B60180E290E00E94D7172A94F6CFF601CE
:102F70008681978102C08FEF9FEF2B96E2E10C9440
:102F80008D18FC010590615070400110D8F78095B4
:102F900090958E0F9F1F0895FC0161507040019025
:102FA0000110D8F7809590958E0F9F1F08950F936D
:102FB0001F93CF93DF93FB01238121FD03C08FEF8C
:102FC0009FEF2CC022FF16C0468157812481358196
:102FD0004217530744F4A081B1819D012F5F3F4FF9
:102FE000318320838C93268137812F5F3F4F378336
:102FF000268314C08B01EC01FB010084F185E02DD8
:103000000995892BE1F6D80116968D919C91179719
:10301000019617969C938E931697CE01DF91CF91D0
:103020001F910F910895FA01AA27283051F12031FC
:1030300081F1E8946F936E7F6E5F7F4F8F4F9F4F4C
:10304000AF4FB1E03ED0B4E03CD0670F781F891F8E
:103050009A1FA11D680F791F8A1F911DA11D6A0F5C
:10306000711D811D911DA11D20D009F468943F910F
:103070002AE0269F11243019305D3193DEF6CF010E
:103080000895462F4770405D4193B3E00FD0C9F7D4
:10309000F6CF462F4F70405D4A3318F0495D31FD41
:1030A0004052419302D0A9F7EACFB4E0A695979594
:1030B000879577956795BA95C9F70097610571056A
:1030C00008959B01AC010A2E0694579547953795B4
:1030D0002795BA95C9F7620F731F841F951FA01D0E
:1030E00008952F923F924F925F926F927F928F92AC
:1030F0009F92AF92BF92CF92DF92EF92FF920F9387
:103100001F93CF93DF93CDB7DEB7CA1BDB0B0FB690
:10311000F894DEBF0FBECDBF09942A88398848884D
:103120005F846E847D848C849B84AA84B984C884E3
:10313000DF80EE80FD800C811B81AA81B981CE0FDA
:10314000D11D0FB6F894DEBF0FBECDBFED010895BF
:04315000F894FFCF21
:1031540000E1000001010001010800010600000176
:103164000101060000020202040057414954494E7D
:1031740047210057656C636F6D65204164656C2160
:103184000057656C636F6D652048757373656E7960
:10319400210057656C636F6D65204F6D617221006E
:1031A4004E6F204D617463682100494420495320C7
:1031B400524947485400444F4F52204F50454E0007
:1031C40049442049532057524F4E47004E6F7420B4
:1031D400446574656374656400256400616C6C20E7
:1031E400646F6E6500636F6C6C656374696E6720F1
:1031F400312E2E2E00436F6C6C65637465643A2027
:10320400312F3200636F6C6C656374696E672032B2
:103214002E2E2E00436F6C6C65637465643A203205
:103224002F320054656D706C6174652047656E2E95
:10323400206661696C656420004368617220666978
:103244006C652032206661696C65642000436861A6
:10325400722066696C652031206661696C65642042
:103264000046502053617665640073746F72616721
:10327400652066616C6965640074656D70206765BE
:0A3284006E206661696C656420002D
:00000001FF
