:100000000C942A000C9447000C9447000C94470071
:100010000C9447000C9447000C9447000C94470044
:100020000C9447000C9447000C9447000C94470034
:100030000C9447000C945D0D0C94050D0C94390D37
:100040000C9447000C9447000C9447000C94470014
:100050000C94470011241FBECFE5D8E0DEBFCDBF12
:1000600011E0A0E6B0E0E0E3F4E202C005900D92FA
:10007000AA33B107D9F725E0AAE3B1E001C01D9288
:10008000A834B207E1F70E9408100C9416120C94E1
:1000900000000E94AA0D0E948B0A8EE690E00E944A
:1000A000EC0A0E949B0081E00E945F0682E00E94B1
:1000B0005F0683E00E945F0684E00C945F060E9466
:1000C000AA0D0E948B0A0E94BB060E9481070E9413
:1000D000B30B0E949B0041E067E081E00E94330E79
:1000E00041E066E082E00C94330E0E940A0640E094
:1000F00050E062E070E08130910519F487E790E00C
:1001000013C08230910519F48FE790E00DC0833061
:10011000910519F485E890E007C0049719F48AE87E
:1001200090E002C080E990E00C9428070E945F00F4
:100130000E947500FFCFEF92FF920F931F93E09004
:100140006000F090610000916200109163002091C6
:1001500064003091650040916600509167006091A5
:1001600068007091690080916A0090916B000E9414
:10017000500C88EC90E01F910F91FF90EF900C9441
:10018000FB0DCF92DF92EF92FF920F931F93CF93CD
:10019000DF93CDB7DEB78C8590E00E94B70C8B85DE
:1001A00090E00E94B70C8E010F5E1F4F7E018DE024
:1001B000E80EF11CF80182918F0190E00E94B70CCB
:1001C0000E151F05B9F7898990E00E94B70CEB88DE
:1001D000F12CC7010E94B70C8A89082F10E0C801D2
:1001E0000E94B70CFE2CEE240E291F290250110983
:1001F000CE010B966C017C01C7018C199D098017FB
:10020000910748F4F701818590E00E94B70CFFEF59
:10021000EF1AFF0AF1CFCB5EDE4F8881C551D14086
:1002200090E00E94B70CCC5EDE4F8881C451D14073
:1002300090E00E94B70C81E0DF91CF911F910F9168
:10024000FF90EF90DF90CF900895CF92DF92EF92E2
:10025000FF920F931F93CF93DF93CDB7DEB78C85BB
:1002600090E00E94E80C8B8590E00E94E80C8E01E3
:100270000F5E1F4F7E018DE0E80EF11CF8018291A8
:100280008F0190E00E94E80C0E151F05B9F78989CF
:1002900090E00E94E80CEB88F12CC7010E94E80C6A
:1002A0008A89082F10E0C8010E94E80CFE2CEE2479
:1002B0000E291F2902501109CE010B966C017C01F9
:1002C000C7018C199D098017910748F4F7018185B2
:1002D00090E00E94E80CFFEFEF1AFF0AF1CFCB5E2F
:1002E000DE4F8881C551D14090E00E94E80CCC5E81
:1002F000DE4F8881C451D14090E00E94E80C81E03B
:10030000DF91CF911F910F91FF90EF90DF90CF90F1
:100310000895CF92DF92EF92FF920F931F93CF93A6
:10032000DF93EC010E94C20C89830E94C20C888377
:100330008E010A5F1F4F7E0182E0E80EF11C0E94D1
:10034000C20CF80182938F01EE16FF06C1F70E94DE
:10035000C20C8E830E94C20C88870E94C20C8F83BD
:100360009885082F10E0192B025011096E01F9E051
:10037000CF0ED11CE12CF12CE016F10648F40E94BE
:10038000C20CF60181936F01FFEFEF1AFF0AF4CF61
:100390000E94C20CFE01E65FFE4F80830E94C20CE9
:1003A000C75FDE4F888381E0DF91CF911F910F916E
:1003B000FF90EF90DF90CF900895EF92FF920F9310
:1003C0001F93CF93DF93EC0101E010E00E94F80C43
:1003D0008E3029F0FE01E00FF11F808302C00F5F15
:1003E0001F4F0150110917FFF1CF03E010E00E94E9
:1003F000F80C8E3029F0FE01E00FF11F828302C05D
:100400000F5F1F4F0150110917FFF1CF0E94F80C29
:100410008E30E1F38E8301E010E00E94F80C8E3004
:1004200029F0FE01E00FF11F878302C00F5F1F4F0D
:100430000150110917FFF1CFEF80F88482E0E81A2C
:10044000F10800E010E00E151F0570F40E94F80C92
:100450008E3029F0FE01E00FF11F818702C00150AC
:1004600011090F5F1F4FEFCF01E010E00E94F80C61
:100470008E3039F0FE01E00FF11FE75FFE4F808301
:1004800002C00F5F1F4F0150110917FFEFCF81E02E
:10049000DF91CF911F910F91FF90EF900895CF932F
:1004A000DF93CDB7DEB74B852C853D858C8590E0FD
:1004B000840F911D4D85840F911D22503109BE017D
:1004C0006B5F7F4FFB01AF01461B570B4217530772
:1004D00028F44185840F911D3196F5CFDF91CF919E
:1004E0000895CF93DF93EC0181E09FEE9983888399
:1004F0008FEF9FEFDC018A839B83AC83BD836E8388
:100500004F835887DE011996F90142505109CF01F6
:10051000821B930B8417950718F481918D93F7CF65
:100520002DB73EB72B5031400FB6F8943EBF0FBEEB
:100530002DBFADB7BEB711968BE091E0FE010190E3
:100540000D920197E1F70E944F022DB73EB7255F4C
:100550003E4F0FB6F8943EBF0FBE2DBFC75FDE4FB4
:1005600099838883DF91CF910895EF92FF920F9343
:100570001F93CF93DF93CDB7DEB7CB51D2400FB6E9
:10058000F894DEBF0FBECDBF8E01045F1E4F2BE07F
:1005900031E0F801A901119241505040E1F7FE010C
:1005A00031967F01A901119241505040E1F723E1BA
:1005B000C95EDD4F2883C751D240C85EDD4F6883D6
:1005C000C851D240C75EDD4F7883C951D240C65E64
:1005D000DD4F8883CA51D240C55EDD4F9883CB5131
:1005E000D2409E01295E3D4F47E050E061E0C801E6
:1005F0000E9471028DB79EB78B5091400FB6F89450
:100600009EBF0FBE8DBFADB7BEB711968BE091E018
:10061000F80101900D920197E1F70E9425010FB6B4
:10062000F894DEBF0FBECDBFC7010E94DD018A85F1
:10063000C55EDD4F0FB6F894DEBF0FBECDBFDF91B4
:10064000CF911F910F91FF90EF900895EF92FF923D
:100650000F931F93CF93DF93CDB7DEB7C751D2402F
:100660000FB6F894DEBF0FBECDBF8E01045F1E4FE4
:100670008BE091E0F8019C01119221503040E1F7AC
:10068000FE0131967F019C01119221503040E1F72B
:1006900081E0C95EDD4F8883C751D2409E01295E4B
:1006A0003D4F43E050E061E0C8010E9471028DB708
:1006B0009EB78B5091400FB6F8949EBF0FBE8DBF72
:1006C000ADB7BEB711968BE091E0F80101900D92A5
:1006D0000197E1F70E9425010FB6F894DEBF0FBE27
:1006E000CDBFC7010E94DD018A85C95EDD4F0FB60F
:1006F000F894DEBF0FBECDBFDF91CF911F910F9158
:10070000FF90EF900895EF92FF920F931F93CF9376
:10071000DF93CDB7DEB7C751D2400FB6F894DEBF36
:100720000FBECDBF8E01045F1E4F8BE091E0F8013C
:100730009C01119221503040E1F7FE0131967F017A
:100740009C01119221503040E1F78AE0C95EDD4FF3
:100750008883C751D2409E01295E3D4F43E050E05F
:1007600061E0C8010E9471028DB79EB78B50914025
:100770000FB6F8949EBF0FBE8DBFADB7BEB7119632
:100780008BE091E0F80101900D920197E1F70E9452
:1007900025010FB6F894DEBF0FBECDBFC7010E9482
:1007A000DD018A85C95EDD4F0FB6F894DEBF0FBE4E
:1007B000CDBFDF91CF911F910F91FF90EF900895E2
:1007C000EF92FF920F931F93CF93DF93CDB7DEB7D6
:1007D000C851D2400FB6F894DEBF0FBECDBF8E0118
:1007E000045F1E4F2BE031E0F801A9011192415046
:1007F0005040E1F7FE0131967F01A901119241506D
:100800005040E1F792E0C95EDD4F9883C751D24076
:10081000C85EDD4F8883C851D2409E01295E3D4F9E
:1008200044E050E061E0C8010E9471028DB79EB7BC
:100830008B5091400FB6F8949EBF0FBE8DBFADB7E1
:10084000BEB711968BE091E0F80101900D920197EF
:10085000E1F70E9425010FB6F894DEBF0FBECDBFB1
:10086000C7010E94DD018A85C85EDD4F0FB6F8948E
:10087000DEBF0FBECDBFDF91CF911F910F91FF90D3
:10088000EF900895EF92FF920F931F93CF93DF9312
:10089000CDB7DEB7C751D2400FB6F894DEBF0FBE5A
:1008A000CDBF8E01045F1E4F8BE091E0F8019C01EB
:1008B000119221503040E1F7FE0131967F019C01F9
:1008C000119221503040E1F785E0C95EDD4F888309
:1008D000C751D2409E01295E3D4F43E050E061E0A8
:1008E000C8010E9471028DB79EB78B5091400FB620
:1008F000F8949EBF0FBE8DBFADB7BEB711968BE00B
:1009000091E0F80101900D920197E1F70E94250115
:100910000FB6F894DEBF0FBECDBFC7010E94DD0148
:100920008A85C95EDD4F0FB6F894DEBF0FBECDBF1E
:10093000DF91CF911F910F91FF90EF900895EF926B
:10094000FF920F931F93CF93DF93CDB7DEB7CA51BA
:10095000D2400FB6F894DEBF0FBECDBF8E01045F4C
:100960001E4F2BE031E0F801A90111924150504097
:10097000E1F7FE0131967F01A901119241505040EB
:10098000E1F796E0C95EDD4F9883C751D240C85E5B
:10099000DD4F8883C851D240C75EDD4F7883C9518F
:1009A000D240C65EDD4F6883CA51D2409E01295EA7
:1009B0003D4F46E050E061E0C8010E9471028DB7F2
:1009C0009EB78B5091400FB6F8949EBF0FBE8DBF5F
:1009D000ADB7BEB711968BE091E0F80101900D9292
:1009E0000197E1F70E9425010FB6F894DEBF0FBE14
:1009F000CDBFC7010E94DD018A85C65EDD4F0FB6FF
:100A0000F894DEBF0FBECDBFDF91CF911F910F9144
:100A1000FF90EF900895EF92FF920F931F93CF9363
:100A2000DF93CDB7DEB7CB51D2400FB6F894DEBF1F
:100A30000FBECDBF8E01045F1E4F2BE031E0F801E9
:100A4000A901119241505040E1F7FE0131967F011A
:100A5000A901119241505040E1F79CE0C95EDD4F81
:100A60009883C751D240C85EDD4F1882C851D2402A
:100A7000C75EDD4F8883C951D240C65EDD4F7883A3
:100A8000CA51D240C55EDD4F6883CB51D2409E0132
:100A9000295E3D4F47E050E061E0C8010E947102CD
:100AA0008DB79EB78B5091400FB6F8949EBF0FBE86
:100AB0008DBFADB7BEB711968BE091E0F801019004
:100AC0000D920197E1F70E9425010FB6F894DEBF61
:100AD0000FBECDBFC7010E94DD018A85C55EDD4F17
:100AE0000FB6F894DEBF0FBECDBFDF91CF911F913F
:100AF0000F91FF90EF900895AF92BF92CF92DF9247
:100B0000EF92FF920F931F93CF93DF93CDB7DEB792
:100B1000CC51D2400FB6F894DEBF0FBECDBF6901F5
:100B20007E0124EFE21A2EEFF20A0BE011E0F7014A
:100B30009801119221503040E1F7FE0131965F019A
:100B40009801119221503040E1F794E0C95EDD4FE9
:100B50009883C751D240C85EDD4F8883C851D240C8
:100B6000C75EDD4F7883C951D240C65EDD4F6883D2
:100B7000CA51D240C55EDD4F5883CB51D240C45ECE
:100B8000DD4F4883CC51D2409E01295E3D4F48E065
:100B900050E061E0C7010E9471028DB79EB78B5093
:100BA00091400FB6F8949EBF0FBE8DBFADB7BEB7D4
:100BB0001196F70101900D9201501040D9F70E9453
:100BC00025010FB6F894DEBF0FBECDBFC5010E9450
:100BD000DD018A85811109C02B853C8532272327B9
:100BE0003227F6013183208303C0F601118210827F
:100BF000C45EDD4F0FB6F894DEBF0FBECDBFDF91F0
:100C0000CF911F910F91FF90EF90DF90CF90BF9009
:100C1000AF900895CF93DF9300D0CDB7DEB70E9499
:100C20002603882339F00E94C60A84E990E00E94D6
:100C3000EC0AF5CF81E00E94E003811133C00E94ED
:100C4000C60A84EA90E00E94EC0A0E9426038823E8
:100C500029F00E94C60A83EB90E0F5CF82E00E9463
:100C6000E00381111AC00E94C60A83EC90E00E9442
:100C7000EC0A0E94420481110BC09E012F5F3F4F7E
:100C800046E050E061E070E081E00E947C0510C029
:100C90000E94C60A82ED90E009C00E94C60A88EE52
:100CA00090E004C00E94C60A8CEF90E00E94EC0A1B
:100CB00089819A810F900F90DF91CF910895CF9302
:100CC000C82F0E942603882339F00E94C60A84E9AF
:100CD00090E00E94EC0AF5CF81E00E94E0038111D0
:100CE0003BC00E94C60A84EA90E00E94EC0A0E947F
:100CF0002603882329F00E94C60A83EB90E0F5CFF3
:100D000082E00E94E003811122C00E94C60A83ECA7
:100D100090E00E94EC0A0E944204811113C06C2FE3
:100D200070E081E00E949F04811103C080E191E0A6
:100D300002C089E191E00E94EC0A80ED97E0CF913A
:100D40000C94FB0D0E94C60A88E291E009C00E9443
:100D5000C60A88EE90E004C00E94C60A8CEF90E0BC
:100D6000CF910C94EC0A682F80E80C948A0B682FC2
:100D700080E40C948A0B0E94220B8EEA0E94B30638
:100D800085ED0E94B30680E80E94B30688EA0E94BF
:100D9000B3068FE30E94B30683ED0E94B30680E0A2
:100DA0000E94B30680E40E94B3068DE80E94B30659
:100DB00084E10E94B30680E20E94B30680E00E94B4
:100DC000B30681EA0E94B30688EC0E94B3068AED5E
:100DD0000E94B30682E10E94B30681E80E94B30636
:100DE0008FEC0E94B30689ED0E94B30681EF0E944A
:100DF000B3068BED0E94B30680E40E94B30684EA3A
:100E00000E94B30686EA0E94B3068FEA0C94B306EA
:100E10008FEA0C94B3068EEA0C94B306CF93C62FD8
:100E200080550E94B3068C2F880F880F880F88701A
:100E30000E94B30628E0C29FC001112424E09595CA
:100E400087952A95E1F78F70805FCF910C94B30658
:100E5000CF92DF92EF92FF920F931F93CF93DF9386
:100E60001F92CDB7DEB78C01862F1982642F0E94A6
:100E70000E077801F70101917F010023D9F010E0FE
:100E80000052110983E0000F111F8A95E1F76801F4
:100E900088E0C80ED11CBE016F5F7F4FC8010E9461
:100EA000100B89810E94B7060F5F1F4F0C151D059F
:100EB00091F7E0CF0F90DF91CF911F910F91FF90AD
:100EC000EF90DF90CF900895EF92FF920F931F93D2
:100ED000CF93DF937C018B01842F622F0E940E073A
:100EE000E7010E0D1F1DC017D10721F089910E9447
:100EF000B706F9CFDF91CF911F910F91FF90EF903F
:100F00000895CF93DF93C0E060E08C2F0E940E071E
:100F1000D0E080E00E94B706DF5FD038D1F7CF5F26
:100F2000C83091F7DF91CF910895CF9360E00E9490
:100F30000E07C0E080E00E94B706CF5FC038D1F74F
:100F4000CF9108950E940B070E9481070C94080717
:100F5000C498880F8E7780680E94C20B80E00E9440
:100F6000C20BC49A08958F929F92AF92BF92CF9274
:100F7000DF92FF920F931F93CF93DF93CDB7DEB72E
:100F80006E970FB6F894DEBF0FBECDBF6A016F5FDC
:100F9000FE0131969EE1DF011D929A95E9F7C49812
:100FA000880F8E778068F82EA12CB12C062F10E0C8
:100FB0004801B1E08B1A9108A814B9043CF48F2DB4
:100FC0000E94C20B8FEFA81AB80AF6CF80E00E94E9
:100FD000C20BC49ADE011296F601CF018C199D094D
:100FE000801791071CF48D918193F7CF6E960FB601
:100FF000F894DEBF0FBECDBFDF91CF911F910F914F
:10100000FF90DF90CF90BF90AF909F908F9008950A
:10101000CF93C62FC498880F8E770E94C20B8C2F57
:101020000E94C20BC49ACF910895EF92FF920F9342
:101030001F93CF93DF93F42ED52FC1E0C60FC49832
:10104000880F8E770E94C20B0F2D1D2FEE24E39484
:10105000F12CD0E0EC16FD064CF4F80181918F01E3
:101060000E94C20BFFEFEF1AFF0AF4CFC49ADF9180
:10107000CF911F910F91FF90EF900895CF93DF9341
:10108000D82FC62F0E94A807C0956C2F68238D2FDC
:10109000DF91CF910C940808CF93DF93D82FC62F00
:1010A0000E94A807682F6C2B8D2FDF91CF910C9495
:1010B00008086FE081E00E9408082FEF80E792E0C7
:1010C000215080409040E1F700C0000081E00E9484
:1010D000A80783FDFBCF0895EF92FF920F931F9314
:1010E000CF93DF937C01C62F8A0160E081E00E94EC
:1010F000080864E085E00E94080860E88AE00E9431
:101100004C08A7016C2F89E00E94150863E081E07C
:101110000E940808C8E8D3E185E00E94A807982F3C
:10112000947082FD03C02197B9F70FC060E081E0A1
:101130000E94080882E20E94A807F801808381E2E9
:101140000E94A807F801818391E0892FDF91CF9158
:101150001F910F91FF90EF9008953F924F925F92F1
:101160006F927F928F929F92AF92BF92CF92DF92B7
:10117000EF92FF920F931F93CF93DF9300D0CDB7E1
:10118000DEB7D82E3B01342E5901E114F10419F0D9
:10119000F701408001C0412CFCE0DF1631F08EE009
:1011A000D81206C020E1522E04C090E3592E01C08F
:1011B000512C60E081E00E9408086FE784E00E9403
:1011C000080860E88AE00E944C084301630C711C27
:1011D0008614970439F0F40161914F0189E00E946F
:1011E0000808F6CF642D8DE00E9408086D2D81E07F
:1011F0000E940808FCE0DF1204C060E88DE00E9455
:101200004C0880ED882E87E0982E84E00E94A80785
:10121000952D982349F480FF02C0F12C5CC081E039
:10122000881A910891F7F9CF86E00E94A807782ED6
:10123000837199F7A114B10421F10115110509F188
:101240008AE00E94A807D82EF80180818D1528F326
:10125000DD2019F3D0826A2C4501882D86198D1561
:1012600038F489E00E94A807F40181934F01F5CF7B
:101270008CE00E94A8078770E114F10411F0F701D7
:101280008083F72DF870FF2E73FCC7CFA114B10433
:1012900001F101151105E9F0CC20D9F0F8016081C8
:1012A000625070E0AE014F5F5F4FC5010E946C0855
:1012B000882389F0F8018081A80EB11CF5013297CE
:1012C00090818981981307C0319690818A81981303
:1012D00002C0FF24F3948F2D0F900F90DF91CF91D8
:1012E0001F910F91FF90EF90DF90CF90BF90AF9044
:1012F0009F908F907F906F905F904F903F90089558
:1013000060E88AE20E9408086AE98BE20E94080805
:1013100063E08CE20E94080868EE8DE20E940808F3
:1013200060E485E10E9408086DE381E10E940808FD
:1013300084E10E94A8078370833021F063E084E198
:101340000C944C080895CF92EF92FF920F931F9345
:10135000CF93DF9300D000D01F92CDB7DEB782E0ED
:101360008D8387E08C8360E88EE00E943E0886E2F1
:101370008B83C12CCE0104967C018E010B5F1F4F25
:101380009E012F5F3F4F41E0BE016D5F7F4F8CE0BC
:101390000E94AD08811113C041E066E080E00E9428
:1013A000770E84EF91E00E94FB0D40E066E080E064
:1013B0000E94770E84EF91E00E94FB0DDACF8D81C1
:1013C000823019F481E09C81911180E00F900F90A0
:1013D0000F900F900F90DF91CF911F910F91FF9081
:1013E000EF90CF90089587E30C94A807BF92CF9217
:1013F000DF92EF92FF920F931F93CF93DF93CDB7BE
:10140000DEB72A970FB6F894DEBF0FBECDBFB82E59
:10141000D92E89E08A8760E88EE00E943E0860E06D
:101420008DE00E94080883E9898380E28A83C12CC9
:10143000E12CF12C8E01065F1F4F9E012F5F3F4F65
:1014400042E0B9018CE00E94AD08882361F0FE0102
:101450003196AB2DBD2DCE01059621912D93E81728
:10146000F907D9F781E02A960FB6F894DEBF0FBED0
:10147000CDBFDF91CF911F910F91FF90EF90DF9043
:10148000CF90BF90089541E062E080E00E94770E27
:1014900081E090E00E94120E40E062E080E00C9457
:1014A000770ECF93C82F482F417060E081E00E94F3
:1014B000770EC1FB442740F961E081E00E94770E7E
:1014C000C2FB442740F962E081E00E94770EC3FB33
:1014D000442740F964E081E0CF910C94770ECF93DC
:1014E000C82F82958F700E94510A40E063E080E02F
:1014F0000E94770E0E94430A84E690E00E94120E3A
:101500008C2F8F700E94510A0E94430A84E690E05B
:10151000CF910C94120E0E94AA0D41E060E081E090
:101520000E94330E41E061E081E00E94330E41E011
:1015300062E081E00E94330E41E064E081E00E94BD
:10154000330E41E063E080E00E94330E41E062E050
:1015500080E00E94330E40E062E080E00E94770E5F
:1015600083E30E946F0A82E30E946F0A88E20E946E
:101570006F0A8EE00E946F0A81E00E946F0A80ED80
:1015800097E00E94120E86E00C946F0A81E00E94A0
:101590006F0A83E00E946F0A80ED97E00C94120EB0
:1015A000CF93C82F82958F700E94510A41E063E06B
:1015B00080E00E94770E0E94430A84E690E00E9439
:1015C000120E8C2F8F700E94510A0E94430A84E6EB
:1015D00090E0CF910C94120ECF93DF93EC018991A0
:1015E000882319F00E94D00AFACFDF91CF91089595
:1015F00080EC0C946F0A8150860F0C946F0A811551
:1016000024E0920750F4E199FECF9FBB8EBB6DBBE7
:10161000E29AE19A81E090E0089580E090E00895F8
:10162000811524E0920758F4E199FECF9FBB8EBB51
:10163000E09A8DB3FB01808381E090E0089580E023
:1016400090E0089580916C0090916D008430910538
:1016500071F020F4019781F481B10DC080319105C2
:1016600041F08034910541F481B1836004C0089A4F
:1016700003C0099A01C081B988E480B9089584EE55
:1016800086BF06B607FEFDCF91B1987F21E030E01E
:10169000983011F420E030E0C901089583B984E85E
:1016A00086BF06B607FEFDCF81B1887F883219F468
:1016B00080E090E0089585E090E0089583B984E8A3
:1016C00086BF06B607FEFDCF80E090E008950C943B
:1016D0005E0B84EE86BF06B607FEFDCF81B1887F24
:1016E000803119F480E090E0089582E090E0089560
:1016F00084E886BF06B607FEFDCF83B1089584EC6B
:1017000086BF06B607FEFDCF83B190E0089584ED55
:1017100086BF0895CF93DF93D82FC62F0E943F0B2B
:1017200088E70E945E0B8D2F0E944E0B8C2F0E942B
:101730005E0B84ED86BFDF91CF910895CF93C82FC4
:101740000E943F0B88E70E945E0B8C2F0E944E0B7D
:101750000E94690B89E70E945E0B0E94780B94ED52
:1017600096BFCF91089570986D986B986A986F980E
:101770006E9ABD9ABF9ABC9ABE98C49A6C9A689A9F
:10178000699808958FB9779BFECF8FB10895CF9355
:10179000DF9300D0CDB7DEB7262F1A821982BC01A5
:1017A00080E090E0213039F40E941B1120E030E00D
:1017B00040E051E406C00E941B1120E030E040E808
:1017C00051E40E94A9119B01AC0160E074E284E73E
:1017D0009BE40E947A1020E030E040E85FE30E9442
:1017E0000D100E94EC107A83698380B58F7780BDDD
:1017F00089819A8190BD89819A8189B980B58068F3
:1018000080BD0F900F90DF91CF9108959091470583
:10181000813011F4977F01C0986090934705089537
:10182000813041F018F0823051F0089580914705E1
:101830008F7C08C0809147058F7E806203C08091B5
:10184000470580638093470508958730A1F028F409
:10185000853041F0863051F00895883089F0893024
:10186000B1F0089590914705997F0DC0909147057B
:101870009B7F926008C0909147059D7F946003C054
:1018800090914705966090934705529806C09091B5
:101890004705966090934705529A809346050895B0
:1018A000EF92FF920F931F93CF93DF93CDB7DEB7E5
:1018B0002C970FB6F894DEBF0FBECDBFE982FA8237
:1018C0000B831C832D833E834F83588769877A87D8
:1018D0008B879C87899A602F89819A810E94C70B88
:1018E000013009F4599A8C81813009F4589A8D811C
:1018F000813021F4579A8FB780688FBF8E818130F5
:1019000021F4569A8FB780688FBF8F81813021F480
:10191000559A8FB780688FBF8885813009F4549AB3
:101920008985813009F4539A8A850E94250C8B851C
:101930000E94100C8C850E94060C809147058068DF
:101940008093470580BD80E493E00E94690F8AE39D
:1019500091E02C960FB6F894DEBF0FBECDBFDF919D
:10196000CF911F910F91FF90EF900C94690F5D9BA9
:10197000FECF20914605293019F4509890FD509AD9
:101980008CB908955F9BFECF20914605293059F40C
:101990003BB12AB14CB13C7149F426952170922F8C
:1019A00080E0842B08958CB190E008958FEF9FEF35
:1019B0000895CF93DF93EC018991882331F0082EAD
:1019C000000C990B0E94B70CF7CFDF91CF910895CF
:1019D0005D9B09C020914605293019F4509890FD6F
:1019E000509A8CB90895BC0180E493E00C94E10F07
:1019F0008AE391E00E94900F811104C08AE391E094
:101A00000C94A50F8EE090E008951F920F920FB6F0
:101A10000F9211242F933F934F935F936F937F9374
:101A20008F939F93AF93BF93EF93FF9380E493E0E3
:101A30000E94900F81110CC080E493E00E94A50FDA
:101A400020914605293019F4509890FD509A8CB990
:101A5000FF91EF91BF91AF919F918F917F916F9186
:101A60005F914F913F912F910F900FBE0F901F905C
:101A700018951F920F920FB60F9211242F933F9338
:101A80004F935F936F937F938F939F93AF93BF9386
:101A9000EF93FF930E94050DFF91EF91BF91AF91DE
:101AA0009F918F917F916F915F914F913F912F9176
:101AB0000F900FBE0F901F9018951F920F920FB6A8
:101AC0000F9211242F933F934F935F936F937F93C4
:101AD0008F939F93AF93BF93CF93DF93EF93FF9336
:101AE0008AE391E00E94CB0F811117C080914605D7
:101AF000893069F49BB18AB12CB19C7171F48695DF
:101B00008170D82F80E0C82FBE01622B02C06CB15B
:101B100070E08AE391E00E94E10FFF91EF91DF9185
:101B2000CF91BF91AF919F918F917F916F915F9175
:101B30004F913F912F910F900FBE0F901F901895CE
:101B400083B7816083BF83B78D7F83BF83B78B7F6C
:101B500083BF089583B78F7B83BF83B7886083BFBC
:101B600008958830910509F150F48230910591F182
:101B70008330910591F10197C9F50C94A00D883F30
:101B8000910569F020F48034910591F00895811554
:101B900021E09207B1F081159440B1F0089583B728
:101BA0008E7F83BF83B78D7F08C083B78E7F02C0CF
:101BB00083B7816083BF83B7826083BF83B78B7F26
:101BC00014C083B78E7F02C083B7816083BF83B7A1
:101BD0008D7F08C083B78E7F02C083B7816083BFCB
:101BE00083B7826083BF83B7846083BF089588EF23
:101BF00090E00C94B10DCF93DF93EC018AEF8CBF92
:101C000080E490E00E94B10D209741F008B601FEFB
:101C1000FDCF88B7826088BF2197F6CFDF91CF9143
:101C20000C94F70DCF93DF93EC0180E18CBF0E9401
:101C3000A00D209741F008B601FEFDCF88B7826065
:101C400088BF2197F6CFDF91CF910C94F70DF894D0
:101C50000895789408958FB78F778FBF08958FB7C1
:101C600080688FBF08958130A9F028F0823009F193
:101C7000833071F108952AB381E090E001C0880FAC
:101C80006A95EAF7411103C08095822301C0822B37
:101C90008ABB089527B381E090E001C0880F6A9560
:101CA000EAF7411103C08095822301C0822B87BBD4
:101CB000089524B381E090E001C0880F6A95EAF7A7
:101CC000411103C08095822301C0822B84BB0895FB
:101CD00021B381E090E001C0880F6A95EAF74111D5
:101CE00003C08095822301C0822B81BB089581307F
:101CF000A9F028F0823009F1833071F108952BB3F7
:101D000081E090E001C0880F6A95EAF7411103C0B5
:101D10008095822301C0822B8BBB089528B381E07C
:101D200090E001C0880F6A95EAF7411103C08095E1
:101D3000822301C0822B88BB089525B381E090E007
:101D400001C0880F6A95EAF7411103C0809582238C
:101D500001C0822B85BB089522B381E090E001C0D1
:101D6000880F6A95EAF7411103C08095822301C06C
:101D7000822B82BB0895813081F028F08230B9F047
:101D80008330F9F008952BB381E090E001C0880F13
:101D90006A95EAF782278BBB089528B381E090E02B
:101DA00001C0880F6A95EAF7822788BB089525B39A
:101DB00081E090E001C0880F6A95EAF7822785BB31
:101DC000089522B381E090E001C0880F6A95EAF798
:101DD000822782BB0895813069F028F0823089F033
:101DE0008330B1F00895611102C01ABA08958FEFDF
:101DF0008ABB0895611102C017BA08958FEF87BB9F
:101E00000895611102C014BA08958FEF84BB08953C
:101E1000611102C011BA08958FEF81BB089581301E
:101E200041F028F0823039F0833039F008956BBBEF
:101E3000089568BB089565BB089562BB089581301D
:101E400049F030F0823041F08330C1F420B305C056
:101E500029B303C026B301C023B381E090E0062E6E
:101E600002C0880F991F0A94E2F730E0822393237F
:101E700002C0959587956A95E2F7089580E00895E8
:101E8000813051F028F0823059F0833069F00895A4
:101E90008BB380958BBB089588B3809588BB0895DC
:101EA00085B3809585BB089582B3809582BB0895E4
:101EB000813049F030F0823041F0833041F480B31A
:101EC000089589B3089586B3089583B3089580E093
:101ED0000895FC01EC5FFD4F11821082349711824E
:101EE00010823296118210820895FC012081318186
:101EF0002F5F3F4F211581E0380719F411821082BE
:101F00000895318320830895FC012081318121507F
:101F10003109318320830895FC01808191810895E6
:101F2000FC01EC5FFD4F20813181232B61F4DC014A
:101F3000AE5FBD4F349781E04D915C91208131813E
:101F40004217530709F080E008950F931F93CF9332
:101F5000DF93EC010E94900F811116C0CE019E5FAD
:101F6000DC01ED91FC91EE0FFF1FEC0FFD1F0081D6
:101F700011810E94750FCC5FDD4F88819981019797
:101F800099838883C80102C08EE090E0DF91CF91F1
:101F90001F910F910895FC01EC5FFD4F208131816D
:101FA0002115314061F4DC01AE5FBD4F349781E013
:101FB0004D915C91208131814217530709F080E0F7
:101FC00008950F931F93CF93DF93EC018B010E9431
:101FD000CB0F811117C0CE018E5F9D4FDC01ED91BB
:101FE000FC91EE0FFF1FEC0FFD1F118300830E9479
:101FF000750FCC5FDD4F8881998101969983888325
:1020000081E001C08FE0DF91CF911F910F91089582
:102010000E94960080E090E008955058BB27AA27C0
:102020000E9425100C946F110E94611138F00E94DB
:10203000681120F039F49F3F19F426F40C945E11D6
:102040000EF4E095E7FB0C945811E92F0E948011E3
:1020500058F3BA17620773078407950720F079F4DD
:10206000A6F50C94A2110EF4E0950B2EBA2FA02D1C
:102070000B01B90190010C01CA01A0011124FF2735
:10208000591B99F0593F50F4503E68F11A16F04030
:10209000A22F232F342F4427585FF3CF469537952F
:1020A0002795A795F0405395C9F77EF41F16BA0BF4
:1020B000620B730B840BBAF09150A1F0FF0FBB1FA2
:1020C000661F771F881FC2F70EC0BA0F621F731FEB
:1020D000841F48F4879577956795B795F7959E3F48
:1020E00008F0B0CF9395880F08F09927EE0F9795D9
:1020F000879508950E948E100C946F110E946811AC
:1021000058F00E94611140F029F45F3F29F00C94CF
:10211000581151110C94A3110C945E110E9480115E
:1021200068F39923B1F3552391F3951B550BBB2706
:10213000AA2762177307840738F09F5F5F4F220F4B
:10214000331F441FAA1FA9F335D00E2E3AF0E0E842
:1021500032D091505040E695001CCAF72BD0FE2F8C
:1021600029D0660F771F881FBB1F26173707480720
:10217000AB07B0E809F0BB0B802DBF01FF279358D8
:102180005F4F3AF09E3F510578F00C9458110C9433
:10219000A3115F3FE4F3983ED4F386957795679556
:1021A000B795F7959F5FC9F7880F911D969587950D
:1021B00097F90895E1E0660F771F881FBB1F62172C
:1021C00073078407BA0720F0621B730B840BBA0BEA
:1021D000EE1F88F7E09508950E94881188F09F57B8
:1021E00098F0B92F9927B751B0F0E1F0660F771F3B
:1021F000881F991F1AF0BA95C9F714C0B13091F031
:102200000E94A211B1E008950C94A211672F782FBB
:102210008827B85F39F0B93FCCF3869577956795F5
:10222000B395D9F73EF490958095709561957F4F61
:102230008F4F9F4F0895E89409C097FB3EF4909507
:102240008095709561957F4F8F4F9F4F9923A9F08F
:10225000F92F96E9BB279395F6958795779567951E
:10226000B795F111F8CFFAF4BB0F11F460FF1BC062
:102270006F5F7F4F8F4F9F4F16C0882311F096E9F5
:1022800011C0772321F09EE8872F762F05C06623A3
:1022900071F096E8862F70E060E02AF09A95660F5C
:1022A000771F881FDAF7880F9695879597F9089515
:1022B00097F99F6780E870E060E008959FEF80ECF9
:1022C000089500240A94161617061806090608959C
:1022D00000240A9412161306140605060895092E02
:1022E0000394000C11F4882352F0BB0F40F4BF2B71
:1022F00011F460FF04C06F5F7F4F8F4F9F4F0895B1
:1023000057FD9058440F551F59F05F3F71F04795A6
:10231000880F97FB991F61F09F3F79F0879508958B
:10232000121613061406551FF2CF4695F1DF08C0AA
:10233000161617061806991FF1CF869571056105C7
:1023400008940895E894BB2766277727CB0197F96F
:1023500008950E94BC110C946F110E94611138F015
:102360000E94681120F0952311F00C9458110C94E0
:102370005E1111240C94A3110E94801170F3959F9B
:10238000C1F3950F50E0551F629FF001729FBB276C
:10239000F00DB11D639FAA27F00DB11DAA1F649F08
:1023A0006627B00DA11D661F829F2227B00DA11DBB
:1023B000621F739FB00DA11D621F839FA00D611D41
:1023C000221F749F3327A00D611D231F849F600D62
:1023D000211D822F762F6A2F11249F5750409AF08B
:1023E000F1F088234AF0EE0FFF1FBB1F661F771F17
:1023F000881F91505040A9F79E3F510580F00C94E2
:1024000058110C94A3115F3FE4F3983ED4F38695E2
:1024100077956795B795F795E7959F5FC1F7FE2B81
:10242000880F911D9695879597F90895F894FFCF99
:1024300000E1000001010001010800010400574112
:102440004954494E47210057656C636F6D652041C3
:1024500064656C210068757321006F6D61722100E5
:102460003F3F3F00636F6C6C656374696E6720313A
:102470002E2E2E00436F6C6C65637465643A2031B8
:102480002F3200636F6C6C656374696E6720322E47
:102490002E2E00436F6C6C65637465643A20322F96
:1024A000320054656D706C6174652047656E2E2036
:1024B0006661696C65642000436861722066696CBE
:1024C000652032206661696C656420004368617232
:1024D0002066696C652031206661696C6564200046
:1024E00046502053617665640073746F726167654E
:1024F0002066616C6965640074656D702067656E47
:0A250000206661696C65642000002C
:00000001FF
