:100000000C942A000C9447000C9447000C94470071
:100010000C9447000C9447000C9447000C94470044
:100020000C9447000C9447000C9447000C94470034
:100030000C9447000C943D0E0C94E50D0C94190E95
:100040000C9447000C9447000C9447000C94470014
:100050000C94470011241FBECFE5D8E0DEBFCDBF12
:1000600011E0A0E6B0E0EEEFF5E202C005900D92DF
:10007000A238B107D9F725E0A2E8B1E001C01D928E
:10008000A039B207E1F70E94E8100C94FD120C941D
:1000900000000E948A0E0E946B0B8EE690E00E9488
:1000A000CC0B0E948E0181E00E94520782E00E94E8
:1000B000520783E00E94520784E00C9452070E948A
:1000C0008A0E0E946B0B0E94AE070E9474080E9469
:1000D000930C0E94730A0E948E0141E067E081E068
:1000E0000E94130F41E066E082E00E94130F41E09E
:1000F00064E080E00E94130F41E065E080E00E9430
:10010000130F41E066E080E00E94130F41E066E0DB
:1001100082E00C94130F0E94FD069C0121503109CE
:1001200040E050E062E070E02230310518F487E7EB
:1001300090E00AC08330910519F485E890E004C08E
:10014000049731F486E990E00E941B0881E008954D
:1001500084EA90E00E941B0880E00895CF93DF932B
:1001600000D000D0CDB7DEB719821A821B821C8264
:100170000E94D30A823991F441E064E080E00E9459
:10018000570F84EF91E00E94DB0E40E064E080E0D6
:100190000E94570F84EF91E00E94DB0E0E94960AA6
:1001A000882309F471C084ED90E00E94CC0B41E0FB
:1001B00065E080E00E94570F84EF91E00E94DB0E23
:1001C00040E065E080E00E94570F84EF91E00E94DC
:1001D000DB0ECE0101960E94D60A69817A818B815D
:1001E0009C810E94ED1041E0663D73448643974038
:1001F000F9F466E082E00E94570F84EF91E00E94DC
:10020000DB0E40E066E082E00E94570F61E080E88C
:100210000E94DB0B8EEA90E00E94CC0B61E084E947
:100220000E94DB0B8AEB90E00E94CC0B81E047C080
:1002300066E082E00E94570F84EF91E00E94DB0E9F
:1002400040E066E082E00E94570F84EF91E00E9458
:10025000DB0E41E066E082E00E94570F84EF91E000
:100260000E94DB0E40E066E082E00E94570F84EFC0
:1002700091E00E94DB0E61E084E90E94DB0B84ECDC
:1002800090E00E94CC0B1AC00E94960A811116C001
:1002900080ED90E00E94CC0B41E066E080E00E949F
:1002A000570F84EF91E00E94DB0E40E066E080E0B3
:1002B0000E94570F84EF91E00E94DB0E80E00F90C8
:1002C0000F900F900F90DF91CF910895882321F028
:1002D000662311F041E001C040E067E081E00C944A
:1002E000570F0E945F000E948B00C82FD0E0CC23E4
:1002F00059F0DD2329F06D2F8C2F0E94660107C075
:100300000E94AE00D82F03C00E948B00C82F88EC3B
:1003100090E00E94DB0E0E94A60BE9CFEF92FF92C5
:100320000F931F93E0906000F090610000916200D5
:100330001091630020916400309165004091660047
:1003400050916700609168007091690080916A0027
:1003500090916B000E94300D88EC90E01F910F91FE
:10036000FF90EF900C94DB0ECF92DF92EF92FF9212
:100370000F931F93CF93DF93CDB7DEB78C8590E0BB
:100380000E94970D8B8590E00E94970D8E010F5E65
:100390001F4F7E018DE0E80EF11CF80182918F0164
:1003A00090E00E94970D0E151F05B9F7898990E01E
:1003B0000E94970DEB88F12CC7010E94970D8A8946
:1003C000082F10E0C8010E94970DFE2CEE240E2984
:1003D0001F2902501109CE010B966C017C01C70147
:1003E0008C199D098017910748F4F701818590E0E9
:1003F0000E94970DFFEFEF1AFF0AF1CFCB5EDE4FA1
:100400008881C551D14090E00E94970DCC5EDE4FAF
:100410008881C451D14090E00E94970D81E0DF9126
:10042000CF911F910F91FF90EF90DF90CF900895A3
:10043000CF92DF92EF92FF920F931F93CF93DF93B0
:10044000CDB7DEB78C8590E00E94C80D8B8590E01B
:100450000E94C80D8E010F5E1F4F7E018DE0E80ED9
:10046000F11CF80182918F0190E00E94C80D0E15D9
:100470001F05B9F7898990E00E94C80DEB88F12C1F
:10048000C7010E94C80D8A89082F10E0C8010E9488
:10049000C80DFE2CEE240E291F2902501109CE0191
:1004A0000B966C017C01C7018C199D09801791077F
:1004B00048F4F701818590E00E94C80DFFEFEF1A24
:1004C000FF0AF1CFCB5EDE4F8881C551D14090E06D
:1004D0000E94C80DCC5EDE4F8881C451D14090E0AF
:1004E0000E94C80D81E0DF91CF911F910F91FF9085
:1004F000EF90DF90CF900895CF92DF92EF92FF922E
:100500000F931F93CF93DF93EC010E94A20D898379
:100510000E94A20D88838E010A5F1F4F7E0182E038
:10052000E80EF11C0E94A20DF80182938F01EE16D5
:10053000FF06C1F70E94A20D8E830E94A20D88873C
:100540000E94A20D8F839885082F10E0192B02506E
:1005500011096E01F9E0CF0ED11CE12CF12CE0164F
:10056000F10648F40E94A20DF60181936F01FFEF9E
:10057000EF1AFF0AF4CF0E94A20DFE01E65FFE4FC4
:1005800080830E94A20DC75FDE4F888381E0DF91E8
:10059000CF911F910F91FF90EF90DF90CF90089532
:1005A000EF92FF920F931F93CF93DF93EC0101E043
:1005B00010E00E94D80D8E3029F0FE01E00FF11FEF
:1005C000808302C00F5F1F4F0150110917FFF1CF49
:1005D00003E010E00E94D80D8E3029F0FE01E00FFC
:1005E000F11F828302C00F5F1F4F0150110917FFD7
:1005F000F1CF0E94D80D8E30E1F38E8301E010E040
:100600000E94D80D8E3029F0FE01E00FF11F878384
:1006100002C00F5F1F4F0150110917FFF1CFEF808C
:10062000F88482E0E81AF10800E010E00E151F05DA
:1006300070F40E94D80D8E3029F0FE01E00FF11FFA
:10064000818702C0015011090F5F1F4FEFCF01E0FA
:1006500010E00E94D80D8E3039F0FE01E00FF11F3E
:10066000E75FFE4F808302C00F5F1F4F01501109EB
:1006700017FFEFCF81E0DF91CF911F910F91FF9096
:10068000EF900895CF93DF93CDB7DEB74B852C85E0
:100690003D858C8590E0840F911D4D85840F911DC3
:1006A00022503109BE016B5F7F4FFB01AF01461B3A
:1006B000570B4217530728F44185840F911D31963B
:1006C000F5CFDF91CF910895CF93DF93EC0181E0D7
:1006D0009FEE998388838FEF9FEFDC018A839B8352
:1006E000AC83BD836E834F835887DE011996F90171
:1006F00042505109CF01821B930B8417950718F4C0
:1007000081918D93F7CF2DB73EB72B5031400FB667
:10071000F8943EBF0FBE2DBFADB7BEB711968BE0AC
:1007200091E0FE0101900D920197E1F70E944203D2
:100730002DB73EB7255F3E4F0FB6F8943EBF0FBEB4
:100740002DBFC75FDE4F99838883DF91CF910895D6
:10075000EF92FF920F931F93CF93DF93CDB7DEB746
:10076000CB51D2400FB6F894DEBF0FBECDBF8E0185
:10077000045F1E4F2BE031E0F801A90111924150B6
:100780005040E1F7FE0131967F01A90111924150DD
:100790005040E1F723E1C95EDD4F2883C751D240C5
:1007A000C85EDD4F6883C851D240C75EDD4F788395
:1007B000C951D240C65EDD4F8883CA51D240C55E62
:1007C000DD4F9883CB51D2409E01295E3D4F47E0DB
:1007D00050E061E0C8010E9464038DB79EB78B5062
:1007E00091400FB6F8949EBF0FBE8DBFADB7BEB798
:1007F00011968BE091E0F80101900D920197E1F7DD
:100800000E9418020FB6F894DEBF0FBECDBFC7011D
:100810000E94D0028A85C55EDD4F0FB6F894DEBF18
:100820000FBECDBFDF91CF911F910F91FF90EF9041
:100830000895EF92FF920F931F93CF93DF93CDB75D
:10084000DEB7C751D2400FB6F894DEBF0FBECDBFA2
:100850008E01045F1E4F8BE091E0F8019C01119224
:1008600021503040E1F7FE0131967F019C01119249
:1008700021503040E1F781E0C95EDD4F8883C751E8
:10088000D2409E01295E3D4F43E050E061E0C80147
:100890000E9464038DB79EB78B5091400FB6F894B9
:1008A0009EBF0FBE8DBFADB7BEB711968BE091E076
:1008B000F80101900D920197E1F70E9418020FB61E
:1008C000F894DEBF0FBECDBFC7010E94D0028A855B
:1008D000C95EDD4F0FB6F894DEBF0FBECDBFDF910E
:1008E000CF911F910F91FF90EF900895EF92FF929B
:1008F0000F931F93CF93DF93CDB7DEB7C751D2408D
:100900000FB6F894DEBF0FBECDBF8E01045F1E4F41
:100910008BE091E0F8019C01119221503040E1F709
:10092000FE0131967F019C01119221503040E1F788
:100930008AE0C95EDD4F8883C751D2409E01295E9F
:100940003D4F43E050E061E0C8010E9464038DB771
:100950009EB78B5091400FB6F8949EBF0FBE8DBFCF
:10096000ADB7BEB711968BE091E0F80101900D9202
:100970000197E1F70E9418020FB6F894DEBF0FBE90
:10098000CDBFC7010E94D0028A85C95EDD4F0FB678
:10099000F894DEBF0FBECDBFDF91CF911F910F91B5
:1009A000FF90EF900895EF92FF920F931F93CF93D4
:1009B000DF93CDB7DEB7C851D2400FB6F894DEBF93
:1009C0000FBECDBF8E01045F1E4F2BE031E0F8015A
:1009D000A901119241505040E1F7FE0131967F018B
:1009E000A901119241505040E1F792E0C95EDD4FFC
:1009F0009883C751D240C85EDD4F8883C851D2402A
:100A00009E01295E3D4F44E050E061E0C8010E9434
:100A100064038DB79EB78B5091400FB6F8949EBF7C
:100A20000FBE8DBFADB7BEB711968BE091E0F80158
:100A300001900D920197E1F70E9418020FB6F89409
:100A4000DEBF0FBECDBFC7010E94D0028A85C85E3F
:100A5000DD4F0FB6F894DEBF0FBECDBFDF91CF9153
:100A60001F910F91FF90EF900895EF92FF920F93D7
:100A70001F93CF93DF93CDB7DEB7C751D2400FB6E8
:100A8000F894DEBF0FBECDBF8E01045F1E4F8BE01A
:100A900091E0F8019C01119221503040E1F7FE01F4
:100AA00031967F019C01119221503040E1F785E0A1
:100AB000C95EDD4F8883C751D2409E01295E3D4FFC
:100AC00043E050E061E0C8010E9464038DB79EB727
:100AD0008B5091400FB6F8949EBF0FBE8DBFADB73F
:100AE000BEB711968BE091E0F80101900D9201974D
:100AF000E1F70E9418020FB6F894DEBF0FBECDBF1B
:100B0000C7010E94D0028A85C95EDD4F0FB6F894F6
:100B1000DEBF0FBECDBFDF91CF911F910F91FF9030
:100B2000EF900895EF92FF920F931F93CF93DF936F
:100B3000CDB7DEB7CA51D2400FB6F894DEBF0FBEB4
:100B4000CDBF8E01045F1E4F2BE031E0F801A901FB
:100B5000119241505040E1F7FE0131967F01A90109
:100B6000119241505040E1F796E0C95EDD4F988305
:100B7000C751D240C85EDD4F8883C851D240C75E9E
:100B8000DD4F7883C951D240C65EDD4F6883CA51BC
:100B9000D2409E01295E3D4F46E050E061E0C80131
:100BA0000E9464038DB79EB78B5091400FB6F894A6
:100BB0009EBF0FBE8DBFADB7BEB711968BE091E063
:100BC000F80101900D920197E1F70E9418020FB60B
:100BD000F894DEBF0FBECDBFC7010E94D0028A8548
:100BE000C65EDD4F0FB6F894DEBF0FBECDBFDF91FE
:100BF000CF911F910F91FF90EF900895EF92FF9288
:100C00000F931F93CF93DF93CDB7DEB7CB51D24075
:100C10000FB6F894DEBF0FBECDBF8E01045F1E4F2E
:100C20002BE031E0F801A901119241505040E1F769
:100C3000FE0131967F01A901119241505040E1F728
:100C40009CE0C95EDD4F9883C751D240C85EDD4F3E
:100C50001882C851D240C75EDD4F8883C951D24047
:100C6000C65EDD4F7883CA51D240C55EDD4F6883D2
:100C7000CB51D2409E01295E3D4F47E050E061E0FC
:100C8000C8010E9464038DB79EB78B5091400FB688
:100C9000F8949EBF0FBE8DBFADB7BEB711968BE067
:100CA00091E0F80101900D920197E1F70E9418027E
:100CB0000FB6F894DEBF0FBECDBFC7010E94D002B1
:100CC0008A85C55EDD4F0FB6F894DEBF0FBECDBF7F
:100CD000DF91CF911F910F91FF90EF900895AF9208
:100CE000BF92CF92DF92EF92FF920F931F93CF9319
:100CF000DF93CDB7DEB7CC51D2400FB6F894DEBF4C
:100D00000FBECDBF69017E0124EFE21A2EEFF20A79
:100D10000BE011E0F7019801119221503040E1F70A
:100D2000FE0131965F019801119221503040E1F7A8
:100D300094E0C95EDD4F9883C751D240C85EDD4F55
:100D40008883C851D240C75EDD4F7883C951D240F5
:100D5000C65EDD4F6883CA51D240C55EDD4F588301
:100D6000CB51D240C45EDD4F4883CC51D2409E016E
:100D7000295E3D4F48E050E061E0C7010E946403F6
:100D80008DB79EB78B5091400FB6F8949EBF0FBEA3
:100D90008DBFADB7BEB71196F70101900D9201500E
:100DA0001040D9F70E9418020FB6F894DEBF0FBEAC
:100DB000CDBFC5010E94D0028A85811109C02B8553
:100DC0003C85322723273227F6013183208303C055
:100DD000F60111821082C45EDD4F0FB6F894DEBFBB
:100DE0000FBECDBFDF91CF911F910F91FF90EF907C
:100DF000DF90CF90BF90AF900895CF93DF9300D056
:100E0000CDB7DEB70E941904882339F00E94A60BE3
:100E10008DED90E00E94CC0BF5CF81E00E94D304D1
:100E2000811133C00E94A60B8DEE90E00E94CC0B86
:100E30000E941904882329F00E94A60B8CEF90E0F1
:100E4000F5CF82E00E94D30481111AC00E94A60B44
:100E50008CE091E00E94CC0B0E94350581110BC003
:100E60009E012F5F3F4F46E050E061E070E081E07F
:100E70000E946F0610C00E94A60B8BE191E009C092
:100E80000E94A60B81E391E004C00E94A60B85E4BA
:100E900091E00E94CC0B89819A810F900F90DF9195
:100EA000CF910895CF93C82F0E941904882339F059
:100EB0000E94A60B8DED90E00E94CC0BF5CF81E057
:100EC0000E94D30481113BC00E94A60B8DEE90E0DE
:100ED0000E94CC0B0E941904882329F00E94A60BC3
:100EE0008CEF90E0F5CF82E00E94D304811122C004
:100EF0000E94A60B8CE091E00E94CC0B0E9435056D
:100F0000811113C06C2F70E081E00E949205811165
:100F100003C089E591E002C082E691E00E94CC0B1B
:100F200080ED97E0CF910C94DB0E0E94A60B81E739
:100F300091E009C00E94A60B81E391E004C00E94E9
:100F4000A60B85E491E0CF910C94CC0B682F80E840
:100F50000C946A0C682F80E40C946A0C0E94020CBA
:100F60008EEA0E94A60785ED0E94A60780E80E94EF
:100F7000A60788EA0E94A6078FE30E94A60783EDD2
:100F80000E94A60780E00E94A60780E40E94A607B0
:100F90008DE80E94A60784E10E94A60780E20E94D5
:100FA000A60780E00E94A60781EA0E94A60788ECB7
:100FB0000E94A6078AED0E94A60782E10E94A6076A
:100FC00081E80E94A6078FEC0E94A60789ED0E9487
:100FD000A60781EF0E94A6078BED0E94A60780E47A
:100FE0000E94A60784EA0E94A60786EA0E94A60736
:100FF0008FEA0C94A6078FEA0C94A6078EEA0C944D
:10100000A607CF93C62F80550E94A6078C2F880F66
:10101000880F880F88700E94A60728E0C29FC00131
:10102000112424E0959587952A95E1F78F70805FCC
:10103000CF910C94A607CF92DF92EF92FF920F937D
:101040001F93CF93DF931F92CDB7DEB78C01862F0E
:101050001982642F0E9401087801F70101917F0134
:101060000023D9F010E00052110983E0000F111F96
:101070008A95E1F7680188E0C80ED11CBE016F5F58
:101080007F4FC8010E94F00B89810E94AA070F5F61
:101090001F4F0C151D0591F7E0CF0F90DF91CF91F9
:1010A0001F910F91FF90EF90DF90CF900895EF92F6
:1010B000FF920F931F93CF93DF937C018B01842FBB
:1010C000622F0E940108E7010E0D1F1DC017D107F6
:1010D00021F089910E94AA07F9CFDF91CF911F914A
:1010E0000F91FF90EF900895CF93DF93C0E060E001
:1010F0008C2F0E940108D0E080E00E94AA07DF5FE9
:10110000D038D1F7CF5FC83091F7DF91CF910895F4
:10111000CF9360E00E940108C0E080E00E94AA072F
:10112000CF5FC038D1F7CF9108950E94FE070E948B
:1011300074080C94FB07C398880F8E7780680E9410
:10114000A20C80E00E94A20CC39A08958F929F92F5
:10115000AF92BF92CF92DF92FF920F931F93CF93E4
:10116000DF93CDB7DEB76E970FB6F894DEBF0FBE34
:10117000CDBF6A016F5FFE0131969EE1DF011D92D6
:101180009A95E9F7C398880F8E778068F82EA12C7E
:10119000B12C062F10E04801B1E08B1A9108A81479
:1011A000B9043CF48F2D0E94A20C8FEFA81AB80A44
:1011B000F6CF80E00E94A20CC39ADE011296F601DF
:1011C000CF018C199D09801791071CF48D91819393
:1011D000F7CF6E960FB6F894DEBF0FBECDBFDF918E
:1011E000CF911F910F91FF90DF90CF90BF90AF9064
:1011F0009F908F900895CF93C62FC398880F8E77B6
:101200000E94A20C8C2F0E94A20CC39ACF91089529
:10121000EF92FF920F931F93CF93DF93F42ED52F6E
:10122000C1E0C60FC398880F8E770E94A20C0F2DC5
:101230001D2FEE24E394F12CD0E0EC16FD064CF4C7
:10124000F80181918F010E94A20CFFEFEF1AFF0AB3
:10125000F4CFC39ADF91CF911F910F91FF90EF9040
:101260000895CF93DF93D82FC62F0E949B08C09577
:101270006C2F68238D2FDF91CF910C94FB08CF93B7
:10128000DF93D82FC62F0E949B08682F6C2B8D2FC1
:10129000DF91CF910C94FB086FE081E00E94FB0886
:1012A0002FEF80E792E0215080409040E1F700C0AE
:1012B000000081E00E949B0883FDFBCF0895EF9220
:1012C000FF920F931F93CF93DF937C01C62F8A0168
:1012D00060E081E00E94FB0864E085E00E94FB087A
:1012E00060E88AE00E943F09A7016C2F89E00E9414
:1012F000080963E081E00E94FB08C8E8D3E185E0CB
:101300000E949B08982F947082FD03C02197B9F723
:101310000FC060E081E00E94FB0882E20E949B080F
:10132000F801808381E20E949B08F801818391E0AB
:10133000892FDF91CF911F910F91FF90EF9008952A
:101340003F924F925F926F927F928F929F92AF9255
:10135000BF92CF92DF92EF92FF920F931F93CF93A2
:10136000DF9300D0CDB7DEB7D82E3B01342E590124
:10137000E114F10419F0F701408001C0412CFCE0B8
:10138000DF1631F08EE0D81206C020E1522E04C0E4
:1013900090E3592E01C0512C60E081E00E94FB08CF
:1013A0006FE784E00E94FB0860E88AE00E943F0942
:1013B0004301630C711C8614970439F0F4016191A8
:1013C0004F0189E00E94FB08F6CF642D8DE00E945A
:1013D000FB086D2D81E00E94FB08FCE0DF1204C0D9
:1013E00060E88DE00E943F0980ED882E87E0982E0E
:1013F00084E00E949B08952D982349F480FF02C049
:10140000F12C5CC081E0881A910891F7F9CF86E051
:101410000E949B08782E837199F7A114B10421F1E1
:101420000115110509F18AE00E949B08D82EF801E8
:1014300080818D1528F3DD2019F3D0826A2C4501B7
:10144000882D86198D1538F489E00E949B08F401D7
:1014500081934F01F5CF8CE00E949B088770E114C7
:10146000F10411F0F7018083F72DF870FF2E73FC63
:10147000C7CFA114B10401F101151105E9F0CC2089
:10148000D9F0F8016081625070E0AE014F5F5F4FAC
:10149000C5010E945F09882389F0F8018081A80EA8
:1014A000B11CF501329790818981981307C031965C
:1014B00090818A81981302C0FF24F3948F2D0F909E
:1014C0000F90DF91CF911F910F91FF90EF90DF90E0
:1014D000CF90BF90AF909F908F907F906F905F90D4
:1014E0004F903F90089560E88AE20E94FB086AE905
:1014F0008BE20E94FB0863E08CE20E94FB0868EE2E
:101500008DE20E94FB0860E485E10E94FB086DE328
:1015100081E10E94FB0884E10E949B088370833074
:1015200021F063E084E10C943F090895CF92EF929B
:10153000FF920F931F93CF93DF9300D000D01F92A1
:10154000CDB7DEB782E08D8387E08C8360E88EE0E4
:101550000E94310986E28B83C12CCE0104967C0166
:101560008E010B5F1F4F9E012F5F3F4F41E0BE0179
:101570006D5F7F4F8CE00E94A009882339F08D8138
:10158000823019F481E09C81911180E00F900F90DE
:101590000F900F900F90DF91CF911F910F91FF90BF
:1015A000EF90CF90089587E30C949B08BF92CF9261
:1015B000DF92EF92FF920F931F93CF93DF93CDB7FC
:1015C000DEB72A970FB6F894DEBF0FBECDBFB82E98
:1015D000D92E89E08A8760E88EE00E94310960E0B8
:1015E0008DE00E94FB0883E9898380E28A83C12C15
:1015F000E12CF12C8E01065F1F4F9E012F5F3F4FA4
:1016000042E0B9018CE00E94A009882361F0FE014C
:101610003196AB2DBD2DCE01059621912D93E81766
:10162000F907D9F781E02A960FB6F894DEBF0FBE0E
:10163000CDBFDF91CF911F910F91FF90EF90DF9081
:10164000CF90BF90089541E062E080E00E94570F84
:1016500081E090E00E94F20E40E062E080E00C94B5
:10166000570FCF93C82F482F417060E081E00E9450
:10167000570FC1FB442740F961E081E00E94570FFA
:10168000C2FB442740F962E081E00E94570FC3FB90
:10169000442740F964E081E0CF910C94570FCF9339
:1016A000C82F82958F700E94310B40E063E080E08C
:1016B0000E94570F0E94230B84E690E00E94F20ED6
:1016C0008C2F8F700E94310B0E94230B84E690E0D8
:1016D000CF910C94F20E0E948A0E41E060E081E00E
:1016E0000E94130F41E061E081E00E94130F41E08E
:1016F00062E081E00E94130F41E064E081E00E941B
:10170000130F41E063E080E00E94130F41E062E0CC
:1017100080E00E94130F40E062E080E00E94570FDB
:1017200083E30E944F0B82E30E944F0B88E20E94EA
:101730004F0B8EE00E944F0B81E00E944F0B80ED1B
:1017400097E00E94F20E86E00C944F0B81E00E941D
:101750004F0B83E00E944F0B80ED97E00C94F20E4C
:10176000CF93C82F82958F700E94310B41E063E0C8
:1017700080E00E94570F0E94230B84E690E00E94B5
:10178000F20E8C2F8F700E94310B0E94230B84E687
:1017900090E0CF910C94F20ECF93DF93EC018991FE
:1017A000882319F00E94B00BFACFDF91CF910895F2
:1017B00080EC0C944F0B8150860F0C944F0B8115CD
:1017C00024E0920750F4E199FECF9FBB8EBB6DBB26
:1017D000E29AE19A81E090E0089580E090E0089537
:1017E000811524E0920758F4E199FECF9FBB8EBB90
:1017F000E09A8DB3FB01808381E090E0089580E062
:1018000090E0089580916C0090916D008430910576
:1018100071F020F4019781F481B10DC08031910500
:1018200041F08034910541F481B1836004C0089A8D
:1018300003C0099A01C081B988E480B9089584EE93
:1018400086BF06B607FEFDCF91B1987F21E030E05C
:10185000983011F420E030E0C901089583B984E89C
:1018600086BF06B607FEFDCF81B1887F883219F4A6
:1018700080E090E0089585E090E0089583B984E8E1
:1018800086BF06B607FEFDCF80E090E008950C9479
:101890003E0C84EE86BF06B607FEFDCF81B1887F81
:1018A000803119F480E090E0089582E090E008959E
:1018B00084E886BF06B607FEFDCF83B1089584ECA9
:1018C00086BF06B607FEFDCF83B190E0089584ED94
:1018D00086BF0895CF93DF93D82FC62F0E941F0C89
:1018E00088E70E943E0C8D2F0E942E0C8C2F0E94A8
:1018F0003E0C84ED86BFDF91CF910895CF93C82F22
:101900000E941F0C88E70E943E0C8C2F0E942E0C18
:101910000E94490C89E70E943E0C0E94580C94EDED
:1019200096BFCF91089570986D986B986A986F984C
:101930006E9ABD9ABF9ABB9ABE98C39A6C9A689ADF
:10194000699808958FB9779BFECF8FB10895CF9393
:10195000DF9300D0CDB7DEB7262F1A821982BC01E3
:1019600080E090E0213039F40E94021220E030E063
:1019700040E051E406C00E94021220E030E040E85E
:1019800051E40E9490129B01AC0160E074E284E794
:101990009BE40E94611120E030E040E85FE30E9498
:1019A000F4100E94D3117A83698380B58F7780BD4C
:1019B00089819A8190BD89819A8189B980B5806831
:1019C00080BD0F900F90DF91CF91089590918F057A
:1019D000813011F4977F01C0986090938F0508952E
:1019E000813041F018F0823051F0089580918F05D8
:1019F0008F7C08C080918F058F7E806203C08091AC
:101A00008F05806380938F0508958730A1F028F4B7
:101A1000853041F0863051F00895883089F0893062
:101A2000B1F0089590918F05997F0DC090918F0529
:101A30009B7F926008C090918F059D7F946003C04A
:101A400090918F05966090938F05529806C0909163
:101A50008F05966090938F05529A80938E05089516
:101A6000EF92FF920F931F93CF93DF93CDB7DEB723
:101A70002C970FB6F894DEBF0FBECDBFE982FA8275
:101A80000B831C832D833E834F83588769877A8716
:101A90008B879C87899A602F89819A810E94A70CE5
:101AA000013009F4599A8C81813009F4589A8D815A
:101AB000813021F4579A8FB780688FBF8E81813033
:101AC00021F4569A8FB780688FBF8F81813021F4BF
:101AD000559A8FB780688FBF8885813009F4549AF2
:101AE0008985813009F4539A8A850E94050D8B857A
:101AF0000E94F00C8C850E94E60C80918F05806816
:101B000080938F0580BD88E893E00E94491082E8A9
:101B100091E02C960FB6F894DEBF0FBECDBFDF91DB
:101B2000CF911F910F91FF90EF900C9449105D9B06
:101B3000FECF20918E05293019F4509890FD509ACF
:101B40008CB908955F9BFECF20918E05293059F402
:101B50003BB12AB14CB13C7149F426952170922FCA
:101B600080E0842B08958CB190E008958FEF9FEF73
:101B70000895CF93DF93EC018991882331F0082EEB
:101B8000000C990B0E94970DF7CFDF91CF9108952C
:101B90005D9B09C020918E05293019F4509890FD65
:101BA000509A8CB90895BC0188E893E00C94C11058
:101BB00082E891E00E947010811104C082E891E0F7
:101BC0000C9485108EE090E008951F920F920FB64E
:101BD0000F9211242F933F934F935F936F937F93B3
:101BE0008F939F93AF93BF93EF93FF9388E893E016
:101BF0000E94701081110CC088E893E00E9485104B
:101C000020918E05293019F4509890FD509A8CB986
:101C1000FF91EF91BF91AF919F918F917F916F91C4
:101C20005F914F913F912F910F900FBE0F901F909A
:101C300018951F920F920FB60F9211242F933F9376
:101C40004F935F936F937F938F939F93AF93BF93C4
:101C5000EF93FF930E94E50DFF91EF91BF91AF913C
:101C60009F918F917F916F915F914F913F912F91B4
:101C70000F900FBE0F901F9018951F920F920FB6E6
:101C80000F9211242F933F934F935F936F937F9302
:101C90008F939F93AF93BF93CF93DF93EF93FF9374
:101CA00082E891E00E94AB10811117C080918E05EF
:101CB000893069F49BB18AB12CB19C7171F486951D
:101CC0008170D82F80E0C82FBE01622B02C06CB19A
:101CD00070E082E891E00E94C110FF91EF91DF91E6
:101CE000CF91BF91AF919F918F917F916F915F91B4
:101CF0004F913F912F910F900FBE0F901F9018950D
:101D000083B7816083BF83B78D7F83BF83B78B7FAA
:101D100083BF089583B78F7B83BF83B7886083BFFA
:101D200008958830910509F150F48230910591F1C0
:101D30008330910591F10197C9F50C94800E883F8D
:101D4000910569F020F48034910591F00895811592
:101D500021E09207B1F081159440B1F0089583B766
:101D60008E7F83BF83B78D7F08C083B78E7F02C00D
:101D700083B7816083BF83B7826083BF83B78B7F64
:101D800014C083B78E7F02C083B7816083BF83B7DF
:101D90008D7F08C083B78E7F02C083B7816083BF09
:101DA00083B7826083BF83B7846083BF089588EF61
:101DB00090E00C94910ECF93DF93EC018AEF8CBFEF
:101DC00080E490E00E94910E209741F008B601FE59
:101DD000FDCF88B7826088BF2197F6CFDF91CF9182
:101DE0000C94D70ECF93DF93EC0180E18CBF0E945F
:101DF000800E209741F008B601FEFDCF88B78260C3
:101E000088BF2197F6CFDF91CF910C94D70EF8942D
:101E10000895789408958FB78F778FBF08958FB7FF
:101E200080688FBF08958130A9F028F0823009F1D1
:101E3000833071F108952AB381E090E001C0880FEA
:101E40006A95EAF7411103C08095822301C0822B75
:101E50008ABB089527B381E090E001C0880F6A959E
:101E6000EAF7411103C08095822301C0822B87BB12
:101E7000089524B381E090E001C0880F6A95EAF7E5
:101E8000411103C08095822301C0822B84BB089539
:101E900021B381E090E001C0880F6A95EAF7411113
:101EA00003C08095822301C0822B81BB08958130BD
:101EB000A9F028F0823009F1833071F108952BB335
:101EC00081E090E001C0880F6A95EAF7411103C0F4
:101ED0008095822301C0822B8BBB089528B381E0BB
:101EE00090E001C0880F6A95EAF7411103C0809520
:101EF000822301C0822B88BB089525B381E090E046
:101F000001C0880F6A95EAF7411103C080958223CA
:101F100001C0822B85BB089522B381E090E001C00F
:101F2000880F6A95EAF7411103C08095822301C0AA
:101F3000822B82BB0895813081F028F08230B9F085
:101F40008330F9F008952BB381E090E001C0880F51
:101F50006A95EAF782278BBB089528B381E090E069
:101F600001C0880F6A95EAF7822788BB089525B3D8
:101F700081E090E001C0880F6A95EAF7822785BB6F
:101F8000089522B381E090E001C0880F6A95EAF7D6
:101F9000822782BB0895813069F028F0823089F071
:101FA0008330B1F00895611102C01ABA08958FEF1D
:101FB0008ABB0895611102C017BA08958FEF87BBDD
:101FC0000895611102C014BA08958FEF84BB08957B
:101FD000611102C011BA08958FEF81BB089581305D
:101FE00041F028F0823039F0833039F008956BBB2E
:101FF000089568BB089565BB089562BB089581305C
:1020000049F030F0823041F08330C1F420B305C094
:1020100029B303C026B301C023B381E090E0062EAC
:1020200002C0880F991F0A94E2F730E082239323BD
:1020300002C0959587956A95E2F7089580E0089526
:10204000813051F028F0823059F0833069F00895E2
:102050008BB380958BBB089588B3809588BB08951A
:1020600085B3809585BB089582B3809582BB089522
:10207000813049F030F0823041F0833041F480B358
:10208000089589B3089586B3089583B3089580E0D1
:102090000895FC01EC5FFD4F11821082349711828C
:1020A00010823296118210820895FC0120813181C4
:1020B0002F5F3F4F211581E0380719F411821082FC
:1020C0000895318320830895FC01208131812150BE
:1020D0003109318320830895FC0180819181089525
:1020E000FC01EC5FFD4F20813181232B61F4DC0189
:1020F000AE5FBD4F349781E04D915C91208131817D
:102100004217530709F080E008950F931F93CF9370
:10211000DF93EC010E947010811116C0CE019E5F0A
:10212000DC01ED91FC91EE0FFF1FEC0FFD1F008114
:1021300011810E945510CC5FDD4F888199810197F4
:1021400099838883C80102C08EE090E0DF91CF912F
:102150001F910F910895FC01EC5FFD4F20813181AB
:102160002115314061F4DC01AE5FBD4F349781E051
:102170004D915C91208131814217530709F080E035
:1021800008950F931F93CF93DF93EC018B010E946F
:10219000AB10811117C0CE018E5F9D4FDC01ED9118
:1021A000FC91EE0FFF1FEC0FFD1F118300830E94B7
:1021B0005510CC5FDD4F8881998101969983888382
:1021C00081E001C08FE0DF91CF911F910F910895C1
:1021D0000E94710180E090E00895692796276927A1
:1021E00078278727782708955058BB27AA270E9469
:1021F0000C110C9456120E94481238F00E944F1293
:1022000020F039F49F3F19F426F40C9445120EF493
:10221000E095E7FB0C943F12E92F0E94671258F3F8
:10222000BA17620773078407950720F079F4A6F5BB
:102230000C9489120EF4E0950B2EBA2FA02D0B01F1
:10224000B90190010C01CA01A0011124FF27591BFB
:1022500099F0593F50F4503E68F11A16F040A22F01
:10226000232F342F4427585FF3CF46953795279572
:10227000A795F0405395C9F77EF41F16BA0B620B71
:10228000730B840BBAF09150A1F0FF0FBB1F661FB8
:10229000771F881FC2F70EC0BA0F621F731F841FFB
:1022A00048F4879577956795B795F7959E3F08F021
:1022B000B0CF9395880F08F09927EE0F97958795E3
:1022C00008950E9475110C9456120E944F1258F0F6
:1022D0000E94481240F029F45F3F29F00C943F120D
:1022E00051110C948A120C9445120E94671268F3E3
:1022F0009923B1F3552391F3951B550BBB27AA27BF
:1023000062177307840738F09F5F5F4F220F331FF8
:10231000441FAA1FA9F335D00E2E3AF0E0E832D0C0
:1023200091505040E695001CCAF72BD0FE2F29D0C3
:10233000660F771F881FBB1F261737074807AB0795
:10234000B0E809F0BB0B802DBF01FF2793585F4F0A
:102350003AF09E3F510578F00C943F120C948A128B
:102360005F3FE4F3983ED4F3869577956795B795EC
:10237000F7959F5FC9F7880F911D9695879597F9F7
:102380000895E1E0660F771F881FBB1F6217730770
:102390008407BA0720F0621B730B840BBA0BEE1F85
:1023A00088F7E09508950E946F1288F09F5798F083
:1023B000B92F9927B751B0F0E1F0660F771F881F4A
:1023C000991F1AF0BA95C9F714C0B13091F00E9464
:1023D0008912B1E008950C948912672F782F88270D
:1023E000B85F39F0B93FCCF3869577956795B3958B
:1023F000D9F73EF490958095709561957F4F8F4FFA
:102400009F4F0895E89409C097FB3EF490958095FE
:10241000709561957F4F8F4F9F4F9923A9F0F92FAA
:1024200096E9BB279395F695879577956795B79528
:10243000F111F8CFFAF4BB0F11F460FF1BC06F5F0E
:102440007F4F8F4F9F4F16C0882311F096E911C020
:10245000772321F09EE8872F762F05C0662371F041
:1024600096E8862F70E060E02AF09A95660F771F55
:10247000881FDAF7880F9695879597F9089597F949
:102480009F6780E870E060E008959FEF80EC08951A
:1024900000240A9416161706180609060895002443
:1024A0000A9412161306140605060895092E0394BD
:1024B000000C11F4882352F0BB0F40F4BF2B11F431
:1024C00060FF04C06F5F7F4F8F4F9F4F089557FD90
:1024D0009058440F551F59F05F3F71F04795880F92
:1024E00097FB991F61F09F3F79F087950895121629
:1024F00013061406551FF2CF4695F1DF08C01616D5
:1025000017061806991FF1CF869571056105089485
:102510000895E894BB2766277727CB0197F908959C
:102520000E94A3120C9456120E94481238F00E9486
:102530004F1220F0952311F00C943F120C94451289
:1025400011240C948A120E94671270F3959FC1F3B4
:10255000950F50E0551F629FF001729FBB27F00D51
:10256000B11D639FAA27F00DB11DAA1F649F6627A6
:10257000B00DA11D661F829F2227B00DA11D621FF5
:10258000739FB00DA11D621F839FA00D611D221FAF
:10259000749F3327A00D611D231F849F600D211D93
:1025A000822F762F6A2F11249F5750409AF0F1F016
:1025B00088234AF0EE0FFF1FBB1F661F771F881F7F
:1025C00091505040A9F79E3F510580F00C943F1266
:1025D0000C948A125F3FE4F3983ED4F38695779586
:1025E0006795B795F795E7959F5FC1F7FE2B880F25
:0E25F000911D9695879597F90895F894FFCF61
:1025FE0000E1000001010001010800010400574143
:10260E004954494E47210057656C636F6D652041F3
:10261E0064656C210057656C636F6D65204875733A
:10262E0073656E79210057656C636F6D65204F6D14
:10263E00617221004E6F204D617463682100494420
:10264E0020495320524947485400444F4F52204F7F
:10265E0050454E0049442049532057524F4E470093
:10266E004E6F7420446574656374656400636F6CAB
:10267E006C656374696E6720312E2E2E00436F6C6D
:10268E006C65637465643A20312F3200636F6C6C35
:10269E00656374696E6720322E2E2E00436F6C6C4C
:1026AE0065637465643A20322F320054656D706C28
:1026BE006174652047656E2E206661696C656420C5
:1026CE0000436861722066696C652032206661691C
:1026DE006C65642000436861722066696C65203108
:1026EE00206661696C6564200046502053617665F2
:1026FE00640073746F726167652066616C696564EE
:10270E000074656D702067656E206661696C656426
:02271E00200099
:00000001FF
